:020000040000FA
:1000000000000000C20100000008020EB596B80E04
:100010004D3453F9386DE4D797CEA6B432EF0EEFD6
:100020004C412B12850A6DE839940C88A2654774FF
:100030006F3D60DCB1D08B16FE605A00000000C23C
:100040000100000008020EB596B80E4D3453F93881
:100050006DE4D797CEA6B432EF0EEF4C412B12854C
:100060000A6DE839940C88A26547746F3D60DCB175
:10007000D08B16FE605A00000000C201000000088C
:10008000020EB596B80E4D3453F9386DE4D797CEBD
:10009000A6B432EF0EEF4C412B12850A6DE839946D
:1000A0000C88A26547746F3D60DCB1D08B16FE6092
:1000B0005A00000000C20100000008020EB596B808
:1000C0000E4D3453F9386DE4D797CEA6B432EF0E07
:1000D000EF4C412B12850A6DE839940C88A26547D4
:1000E000746F3D60DCB1D08B16FE605A00000000DA
:1000F000C20100000008020EB596B80E4D3453F947
:10010000386DE4D797CEA6B432EF0EEF4C412B12E8
:10011000850A6DE839940C88A26547746F3D60DCF0
:10012000B1D08B16FE605A00000000C20100000032
:1001300008020EB596B80E4D3453F9386DE4D797D2
:10014000CEA6B432EF0EEF4C412B12850A6DE83982
:10015000940C88A26547746F3D60DCB1D08B16FEAD
:10016000605A00000000C20100000008020EB596AF
:10017000B80E4D3453F9386DE4D797CEA6B432EFAC
:100180000EEF4C412B12850A6DE839940C88A2655C
:1001900047746F3D60DCB1D08B16FE605A000000E2
:1001A00000C20100000008020EB596B80E4D34538F
:1001B000F9386DE4D797CEA6B432EF0EEF4C412B51
:1001C00012850A6DE839940C88A26547746F3D600A
:1001D000DCB1D08B16FE605A00000000C2010000A6
:1001E0000008020EB596B80E4D3453F9386DE4D7B9
:1001F00097CEA6B432EF0EEF4C412B12850A6DE874
:1002000039940C88A26547746F3D60DCB1D08B16C1
:10021000FE605A00000000C20100000008020EB596
:1002200096B80E4D3453F9386DE4D797CEA6B43254
:10023000EF0EEF4C412B12850A6DE839940C88A221
:100240006547746F3D60DCB1D08B16FE605A0000CC
:100250000000C20100000008020EB596B80E4D3431
:1002600053F9386DE4D797CEA6B432EF0EEF4C4178
:100270002B12850A6DE839940C88A26547746F3D8E
:1002800060DCB1D08B16FE605A00000000C2010095
:10029000000008020EB596B80E4D3453F9386DE4DF
:1002A000D797CEA6B432EF0EEF4C412B12850A6DD4
:1002B000E839940C88A26547746F3D60DCB1D08B3F
:1002C00016FE605A00000000C20100000008020E85
:1002D000B596B80E4D3453F9386DE4D797CEA6B421
:1002E00032EF0EEF4C412B12850A6DE839940C88E1
:1002F000A26547746F3D60DCB1D08B16FE605A007A
:10030000000000C20100000008020EB596B80E4DB4
:100310003453F9386DE4D797CEA6B432EF0EEF4CD4
:10032000412B12850A6DE839940C88A26547746FD9
:100330003D60DCB1D08B16FE605A00000000C201A7
:1003400000000008020EB596B80E4D3453F9386D12
:10035000E4D797CEA6B432EF0EEF4C412B12850AAC
:100360006DE839940C88A26547746F3D60DCB1D0AC
:100370008B16FE605A00000000C201000000080257
:100380000EB596B80E4D3453F9386DE4D797CEA616
:10039000B432EF0EEF4C412B12850A6DE839940C04
:1003A00088A26547746F3D60DCB1D08B16FE605A41
:1003B00000000000C20100000008020EB596B80E51
:1003C0004D3453F9386DE4D797CEA6B432EF0EEF23
:1003D0004C412B12850A6DE839940C88A26547744C
:1003E0006F3D60DCB1D08B16FE605A00000000C289
:1003F0000100000008020EB596B80E4D3453F938CE
:100400006DE4D797CEA6B432EF0EEF4C412B128598
:100410000A6DE839940C88A26547746F3D60DCB1C1
:10042000D08B16FE605A00000000C20100000008D8
:10043000020EB596B80E4D3453F9386DE4D797CE09
:10044000A6B432EF0EEF4C412B12850A6DE83994B9
:100450000C88A26547746F3D60DCB1D08B16FE60DE
:100460005A00000000C20100000008020EB596B854
:100470000E4D3453F9386DE4D797CEA6B432EF0E53
:10048000EF4C412B12850A6DE839940C88A2654720
:10049000746F3D60DCB1D08B16FE605A0000000026
:1004A000C20100000008020EB596B80E4D3453F993
:1004B000386DE4D797CEA6B432EF0EEF4C412B1235
:1004C000850A6DE839940C88A26547746F3D60DC3D
:1004D000B1D08B16FE605A00000000C2010000007F
:1004E00008020EB596B80E4D3453F9386DE4D7971F
:1004F000CEA6B432EF0EEF4C412B12850A6DE839CF
:10050000940C88A26547746F3D60DCB1D08B16FEF9
:10051000605A00000000C20100000008020EB596FB
:10052000B80E4D3453F9386DE4D797CEA6B432EFF8
:100530000EEF4C412B12850A6DE839940C88A265A8
:1005400047746F3D60DCB1D08B16FE605A0000002E
:1005500000C20100000008020EB596B80E4D3453DB
:10056000F9386DE4D797CEA6B432EF0EEF4C412B9D
:1005700012850A6DE839940C88A26547746F3D6056
:10058000DCB1D08B16FE605A00000000C2010000F2
:100590000008020EB596B80E4D3453F9386DE4D705
:1005A00097CEA6B432EF0EEF4C412B12850A6DE8C0
:1005B00039940C88A26547746F3D60DCB1D08B160E
:1005C000FE605A00000000C20100000008020EB5E3
:1005D00096B80E4D3453F9386DE4D797CEA6B432A1
:1005E000EF0EEF4C412B12850A6DE839940C88A26E
:1005F0006547746F3D60DCB1D08B16FE605A000019
:100600000000C20100000008020EB596B80E4D347D
:1006100053F9386DE4D797CEA6B432EF0EEF4C41C4
:100620002B12850A6DE839940C88A26547746F3DDA
:1006300060DCB1D08B16FE605A00000000C20100E1
:10064000000008020EB596B80E4D3453F9386DE42B
:10065000D797CEA6B432EF0EEF4C412B12850A6D20
:10066000E839940C88A26547746F3D60DCB1D08B8B
:1006700016FE605A00000000C20100000008020ED1
:10068000B596B80E4D3453F9386DE4D797CEA6B46D
:1006900032EF0EEF4C412B12850A6DE839940C882D
:1006A000A26547746F3D60DCB1D08B16FE605A00C6
:1006B000000000C20100000008020EB596B80E4D01
:1006C0003453F9386DE4D797CEA6B432EF0EEF4C21
:1006D000412B12850A6DE839940C88A26547746F26
:1006E0003D60DCB1D08B16FE605A00000000C201F4
:1006F00000000008020EB596B80E4D3453F9386D5F
:10070000E4D797CEA6B432EF0EEF4C412B12850AF8
:100710006DE839940C88A26547746F3D60DCB1D0F8
:100720008B16FE605A00000000C2010000000802A3
:100730000EB596B80E4D3453F9386DE4D797CEA662
:10074000B432EF0EEF4C412B12850A6DE839940C50
:1007500088A26547746F3D60DCB1D08B16FE605A8D
:1007600000000000C20100000008020EB596B80E9D
:100770004D3453F9386DE4D797CEA6B432EF0EEF6F
:100780004C412B12850A6DE839940C88A265477498
:100790006F3D60DCB1D08B16FE605A00000000C2D5
:1007A0000100000008020EB596B80E4D3453F9381A
:1007B0006DE4D797CEA6B432EF0EEF4C412B1285E5
:1007C0000A6DE839940C88A26547746F3D60DCB10E
:1007D000D08B16FE605A00000000C2010000000825
:1007E000020EB596B80E4D3453F9386DE4D797CE56
:1007F000A6B432EF0EEF4C412B12850A6DE8399406
:100800000C88A26547746F3D60DCB1D08B16FE602A
:100810005A00000000C20100000008020EB596B8A0
:100820000E4D3453F9386DE4D797CEA6B432EF0E9F
:10083000EF4C412B12850A6DE839940C88A265476C
:10084000746F3D60DCB1D08B16FE605A0000000072
:10085000C20100000008020EB596B80E4D3453F9DF
:10086000386DE4D797CEA6B432EF0EEF4C412B1281
:10087000850A6DE839940C88A26547746F3D60DC89
:10088000B1D08B16FE605A00000000C201000000CB
:1008900008020EB596B80E4D3453F9386DE4D7976B
:1008A000CEA6B432EF0EEF4C412B12850A6DE8391B
:1008B000940C88A26547746F3D60DCB1D08B16FE46
:1008C000605A00000000C20100000008020EB59648
:1008D000B80E4D3453F9386DE4D797CEA6B432EF45
:1008E0000EEF4C412B12850A6DE839940C88A265F5
:1008F00047746F3D60DCB1D08B16FE605A0000007B
:1009000000C20100000008020EB596B80E4D345327
:10091000F9386DE4D797CEA6B432EF0EEF4C412BE9
:1009200012850A6DE839940C88A26547746F3D60A2
:10093000DCB1D08B16FE605A00000000C20100003E
:100940000008020EB596B80E4D3453F9386DE4D751
:1009500097CEA6B432EF0EEF4C412B12850A6DE80C
:1009600039940C88A26547746F3D60DCB1D08B165A
:10097000FE605A00000000C20100000008020EB52F
:1009800096B80E4D3453F9386DE4D797CEA6B432ED
:10099000EF0EEF4C412B12850A6DE839940C88A2BA
:1009A0006547746F3D60DCB1D08B16FE605A000065
:1009B0000000C20100000008020EB596B80E4D34CA
:1009C00053F9386DE4D797CEA6B432EF0EEF4C4111
:1009D0002B12850A6DE839940C88A26547746F3D27
:1009E00060DCB1D08B16FE605A00000000C201002E
:1009F000000008020EB596B80E4D3453F9386DE478
:100A0000D797CEA6B432EF0EEF4C412B12850A6D6C
:100A1000E839940C88A26547746F3D60DCB1D08BD7
:100A200016FE605A00000000C20100000008020E1D
:100A3000B596B80E4D3453F9386DE4D797CEA6B4B9
:100A400032EF0EEF4C412B12850A6DE839940C8879
:100A5000A26547746F3D60DCB1D08B16FE605A0012
:100A6000000000C20100000008020EB596B80E4D4D
:100A70003453F9386DE4D797CEA6B432EF0EEF4C6D
:100A8000412B12850A6DE839940C88A26547746F72
:100A90003D60DCB1D08B16FE605A00000000C20140
:100AA00000000008020EB596B80E4D3453F9386DAB
:100AB000E4D797CEA6B432EF0EEF4C412B12850A45
:100AC0006DE839940C88A26547746F3D60DCB1D045
:100AD0008B16FE605A00000000C2010000000802F0
:100AE0000EB596B80E4D3453F9386DE4D797CEA6AF
:100AF000B432EF0EEF4C412B12850A6DE839940C9D
:100B000088A26547746F3D60DCB1D08B16FE605AD9
:100B100000000000C20100000008020EB596B80EE9
:100B20004D3453F9386DE4D797CEA6B432EF0EEFBB
:100B30004C412B12850A6DE839940C88A2654774E4
:100B40006F3D60DCB1D08B16FE605A00000000C221
:100B50000100000008020EB596B80E4D3453F93866
:100B60006DE4D797CEA6B432EF0EEF4C412B128531
:100B70000A6DE839940C88A26547746F3D60DCB15A
:100B8000D08B16FE605A00000000C2010000000871
:100B9000020EB596B80E4D3453F9386DE4D797CEA2
:100BA000A6B432EF0EEF4C412B12850A6DE8399452
:100BB0000C88A26547746F3D60DCB1D08B16FE6077
:100BC0005A00000000C20100000008020EB596B8ED
:100BD0000E4D3453F9386DE4D797CEA6B432EF0EEC
:100BE000EF4C412B12850A6DE839940C88A26547B9
:100BF000746F3D60DCB1D08B16FE605A00000000BF
:100C0000C20100000008020EB596B80E4D3453F92B
:100C1000386DE4D797CEA6B432EF0EEF4C412B12CD
:100C2000850A6DE839940C88A26547746F3D60DCD5
:100C3000B1D08B16FE605A00000000C20100000017
:100C400008020EB596B80E4D3453F9386DE4D797B7
:100C5000CEA6B432EF0EEF4C412B12850A6DE83967
:100C6000940C88A26547746F3D60DCB1D08B16FE92
:100C7000605A00000000C20100000008020EB59694
:100C8000B80E4D3453F9386DE4D797CEA6B432EF91
:100C90000EEF4C412B12850A6DE839940C88A26541
:100CA00047746F3D60DCB1D08B16FE605A000000C7
:100CB00000C20100000008020EB596B80E4D345374
:100CC000F9386DE4D797CEA6B432EF0EEF4C412B36
:100CD00012850A6DE839940C88A26547746F3D60EF
:100CE000DCB1D08B16FE605A00000000C20100008B
:100CF0000008020EB596B80E4D3453F9386DE4D79E
:100D000097CEA6B432EF0EEF4C412B12850A6DE858
:100D100039940C88A26547746F3D60DCB1D08B16A6
:100D2000FE605A00000000C20100000008020EB57B
:100D300096B80E4D3453F9386DE4D797CEA6B43239
:100D4000EF0EEF4C412B12850A6DE839940C88A206
:100D50006547746F3D60DCB1D08B16FE605A0000B1
:100D60000000C20100000008020EB596B80E4D3416
:100D700053F9386DE4D797CEA6B432EF0EEF4C415D
:100D80002B12850A6DE839940C88A26547746F3D73
:100D900060DCB1D08B16FE605A00000000C201007A
:100DA000000008020EB596B80E4D3453F9386DE4C4
:100DB000D797CEA6B432EF0EEF4C412B12850A6DB9
:100DC000E839940C88A26547746F3D60DCB1D08B24
:100DD00016FE605A00000000C20100000008020E6A
:100DE000B596B80E4D3453F9386DE4D797CEA6B406
:100DF00032EF0EEF4C412B12850A6DE839940C88C6
:100E0000A26547746F3D60DCB1D08B16FE605A005E
:100E1000000000C20100000008020EB596B80E4D99
:100E20003453F9386DE4D797CEA6B432EF0EEF4CB9
:100E3000412B12850A6DE839940C88A26547746FBE
:100E40003D60DCB1D08B16FE605A00000000C2018C
:100E500000000008020EB596B80E4D3453F9386DF7
:100E6000E4D797CEA6B432EF0EEF4C412B12850A91
:100E70006DE839940C88A26547746F3D60DCB1D091
:100E80008B16FE605A00000000C20100000008023C
:100E90000EB596B80E4D3453F9386DE4D797CEA6FB
:100EA000B432EF0EEF4C412B12850A6DE839940CE9
:100EB00088A26547746F3D60DCB1D08B16FE605A26
:100EC00000000000C20100000008020EB596B80E36
:100ED0004D3453F9386DE4D797CEA6B432EF0EEF08
:100EE0004C412B12850A6DE839940C88A265477431
:100EF0006F3D60DCB1D08B16FE605A00000000C26E
:100F00000100000008020EB596B80E4D3453F938B2
:100F10006DE4D797CEA6B432EF0EEF4C412B12857D
:100F20000A6DE839940C88A26547746F3D60DCB1A6
:100F3000D08B16FE605A00000000C20100000008BD
:100F4000020EB596B80E4D3453F9386DE4D797CEEE
:100F5000A6B432EF0EEF4C412B12850A6DE839949E
:100F60000C88A26547746F3D60DCB1D08B16FE60C3
:100F70005A00000000C20100000008020EB596B839
:100F80000E4D3453F9386DE4D797CEA6B432EF0E38
:100F9000EF4C412B12850A6DE839940C88A2654705
:100FA000746F3D60DCB1D08B16FE605A000000000B
:100FB000C20100000008020EB596B80E4D3453F978
:100FC000386DE4D797CEA6B432EF0EEF4C412B121A
:100FD000850A6DE839940C88A26547746F3D60DC22
:100FE000B1D08B16FE605A00000000C20100000064
:100FF00008020EB596B80E4D3453F9386DE4D79704
:10100000CEA6B432EF0EEF4C412B12850A6DE839B3
:10101000940C88A26547746F3D60DCB1D08B16FEDE
:10102000605A00000000C20100000008020EB596E0
:10103000B80E4D3453F9386DE4D797CEA6B432EFDD
:101040000EEF4C412B12850A6DE839940C88A2658D
:1010500047746F3D60DCB1D08B16FE605A00000013
:1010600000C20100000008020EB596B80E4D3453C0
:10107000F9386DE4D797CEA6B432EF0EEF4C412B82
:1010800012850A6DE839940C88A26547746F3D603B
:10109000DCB1D08B16FE605A00000000C2010000D7
:1010A0000008020EB596B80E4D3453F9386DE4D7EA
:1010B00097CEA6B432EF0EEF4C412B12850A6DE8A5
:1010C00039940C88A26547746F3D60DCB1D08B16F3
:1010D000FE605A00000000C20100000008020EB5C8
:1010E00096B80E4D3453F9386DE4D797CEA6B43286
:1010F000EF0EEF4C412B12850A6DE839940C88A253
:101100006547746F3D60DCB1D08B16FE605A0000FD
:101110000000C20100000008020EB596B80E4D3462
:1011200053F9386DE4D797CEA6B432EF0EEF4C41A9
:101130002B12850A6DE839940C88A26547746F3DBF
:1011400060DCB1D08B16FE605A00000000C20100C6
:10115000000008020EB596B80E4D3453F9386DE410
:10116000D797CEA6B432EF0EEF4C412B12850A6D05
:10117000E839940C88A26547746F3D60DCB1D08B70
:1011800016FE605A00000000C20100000008020EB6
:10119000B596B80E4D3453F9386DE4D797CEA6B452
:1011A00032EF0EEF4C412B12850A6DE839940C8812
:1011B000A26547746F3D60DCB1D08B16FE605A00AB
:1011C000000000C20100000008020EB596B80E4DE6
:1011D0003453F9386DE4D797CEA6B432EF0EEF4C06
:1011E000412B12850A6DE839940C88A26547746F0B
:1011F0003D60DCB1D08B16FE605A00000000C201D9
:1012000000000008020EB596B80E4D3453F9386D43
:10121000E4D797CEA6B432EF0EEF4C412B12850ADD
:101220006DE839940C88A26547746F3D60DCB1D0DD
:101230008B16FE605A00000000C201000000080288
:101240000EB596B80E4D3453F9386DE4D797CEA647
:10125000B432EF0EEF4C412B12850A6DE839940C35
:1012600088A26547746F3D60DCB1D08B16FE605A72
:1012700000000000C20100000008020EB596B80E82
:101280004D3453F9386DE4D797CEA6B432EF0EEF54
:101290004C412B12850A6DE839940C88A26547747D
:1012A0006F3D60DCB1D08B16FE605A00000000C2BA
:1012B0000100000008020EB596B80E4D3453F938FF
:1012C0006DE4D797CEA6B432EF0EEF4C412B1285CA
:1012D0000A6DE839940C88A26547746F3D60DCB1F3
:1012E000D08B16FE605A00000000C201000000080A
:1012F000020EB596B80E4D3453F9386DE4D797CE3B
:10130000A6B432EF0EEF4C412B12850A6DE83994EA
:101310000C88A26547746F3D60DCB1D08B16FE600F
:101320005A00000000C20100000008020EB596B885
:101330000E4D3453F9386DE4D797CEA6B432EF0E84
:10134000EF4C412B12850A6DE839940C88A2654751
:10135000746F3D60DCB1D08B16FE605A0000000057
:10136000C20100000008020EB596B80E4D3453F9C4
:10137000386DE4D797CEA6B432EF0EEF4C412B1266
:10138000850A6DE839940C88A26547746F3D60DC6E
:10139000B1D08B16FE605A00000000C201000000B0
:1013A00008020EB596B80E4D3453F9386DE4D79750
:1013B000CEA6B432EF0EEF4C412B12850A6DE83900
:1013C000940C88A26547746F3D60DCB1D08B16FE2B
:1013D000605A00000000C20100000008020EB5962D
:1013E000B80E4D3453F9386DE4D797CEA6B432EF2A
:1013F0000EEF4C412B12850A6DE839940C88A265DA
:1014000047746F3D60DCB1D08B16FE605A0000005F
:1014100000C20100000008020EB596B80E4D34530C
:10142000F9386DE4D797CEA6B432EF0EEF4C412BCE
:1014300012850A6DE839940C88A26547746F3D6087
:10144000DCB1D08B16FE605A00000000C201000023
:101450000008020EB596B80E4D3453F9386DE4D736
:1014600097CEA6B432EF0EEF4C412B12850A6DE8F1
:1014700039940C88A26547746F3D60DCB1D08B163F
:10148000FE605A00000000C20100000008020EB514
:1014900096B80E4D3453F9386DE4D797CEA6B432D2
:1014A000EF0EEF4C412B12850A6DE839940C88A29F
:1014B0006547746F3D60DCB1D08B16FE605A00004A
:1014C0000000C20100000008020EB596B80E4D34AF
:1014D00053F9386DE4D797CEA6B432EF0EEF4C41F6
:1014E0002B12850A6DE839940C88A26547746F3D0C
:1014F00060DCB1D08B16FE605A00000000C2010013
:10150000000008020EB596B80E4D3453F9386DE45C
:10151000D797CEA6B432EF0EEF4C412B12850A6D51
:10152000E839940C88A26547746F3D60DCB1D08BBC
:1015300016FE605A00000000C20100000008020E02
:10154000B596B80E4D3453F9386DE4D797CEA6B49E
:1015500032EF0EEF4C412B12850A6DE839940C885E
:10156000A26547746F3D60DCB1D08B16FE605A00F7
:10157000000000C20100000008020EB596B80E4D32
:101580003453F9386DE4D797CEA6B432EF0EEF4C52
:10159000412B12850A6DE839940C88A26547746F57
:1015A0003D60DCB1D08B16FE605A00000000C20125
:1015B00000000008020EB596B80E4D3453F9386D90
:1015C000E4D797CEA6B432EF0EEF4C412B12850A2A
:1015D0006DE839940C88A26547746F3D60DCB1D02A
:1015E0008B16FE605A00000000C2010000000802D5
:1015F0000EB596B80E4D3453F9386DE4D797CEA694
:10160000B432EF0EEF4C412B12850A6DE839940C81
:1016100088A26547746F3D60DCB1D08B16FE605ABE
:1016200000000000C20100000008020EB596B80ECE
:101630004D3453F9386DE4D797CEA6B432EF0EEFA0
:101640004C412B12850A6DE839940C88A2654774C9
:101650006F3D60DCB1D08B16FE605A00000000C206
:101660000100000008020EB596B80E4D3453F9384B
:101670006DE4D797CEA6B432EF0EEF4C412B128516
:101680000A6DE839940C88A26547746F3D60DCB13F
:10169000D08B16FE605A00000000C2010000000856
:1016A000020EB596B80E4D3453F9386DE4D797CE87
:1016B000A6B432EF0EEF4C412B12850A6DE8399437
:1016C0000C88A26547746F3D60DCB1D08B16FE605C
:1016D0005A00000000C20100000008020EB596B8D2
:1016E0000E4D3453F9386DE4D797CEA6B432EF0ED1
:1016F000EF4C412B12850A6DE839940C88A265479E
:10170000746F3D60DCB1D08B16FE605A00000000A3
:10171000C20100000008020EB596B80E4D3453F910
:10172000386DE4D797CEA6B432EF0EEF4C412B12B2
:10173000850A6DE839940C88A26547746F3D60DCBA
:10174000B1D08B16FE605A00000000C201000000FC
:1017500008020EB596B80E4D3453F9386DE4D7979C
:10176000CEA6B432EF0EEF4C412B12850A6DE8394C
:10177000940C88A26547746F3D60DCB1D08B16FE77
:10178000605A00000000C20100000008020EB59679
:10179000B80E4D3453F9386DE4D797CEA6B432EF76
:1017A0000EEF4C412B12850A6DE839940C88A26526
:1017B00047746F3D60DCB1D08B16FE605A000000AC
:1017C00000C20100000008020EB596B80E4D345359
:1017D000F9386DE4D797CEA6B432EF0EEF4C412B1B
:1017E00012850A6DE839940C88A26547746F3D60D4
:1017F000DCB1D08B16FE605A00000000C201000070
:101800000008020EB596B80E4D3453F9386DE4D782
:1018100097CEA6B432EF0EEF4C412B12850A6DE83D
:1018200039940C88A26547746F3D60DCB1D08B168B
:10183000FE605A00000000C20100000008020EB560
:1018400096B80E4D3453F9386DE4D797CEA6B4321E
:10185000EF0EEF4C412B12850A6DE839940C88A2EB
:101860006547746F3D60DCB1D08B16FE605A000096
:101870000000C20100000008020EB596B80E4D34FB
:1018800053F9386DE4D797CEA6B432EF0EEF4C4142
:101890002B12850A6DE839940C88A26547746F3D58
:1018A00060DCB1D08B16FE605A00000000C201005F
:1018B000000008020EB596B80E4D3453F9386DE4A9
:1018C000D797CEA6B432EF0EEF4C412B12850A6D9E
:1018D000E839940C88A26547746F3D60DCB1D08B09
:1018E00016FE605A00000000C20100000008020E4F
:1018F000B596B80E4D3453F9386DE4D797CEA6B4EB
:1019000032EF0EEF4C412B12850A6DE839940C88AA
:10191000A26547746F3D60DCB1D08B16FE605A0043
:10192000000000C20100000008020EB596B80E4D7E
:101930003453F9386DE4D797CEA6B432EF0EEF4C9E
:10194000412B12850A6DE839940C88A26547746FA3
:101950003D60DCB1D08B16FE605A00000000C20171
:1019600000000008020EB596B80E4D3453F9386DDC
:10197000E4D797CEA6B432EF0EEF4C412B12850A76
:101980006DE839940C88A26547746F3D60DCB1D076
:101990008B16FE605A00000000C201000000080221
:1019A0000EB596B80E4D3453F9386DE4D797CEA6E0
:1019B000B432EF0EEF4C412B12850A6DE839940CCE
:1019C00088A26547746F3D60DCB1D08B16FE605A0B
:1019D00000000000C20100000008020EB596B80E1B
:1019E0004D3453F9386DE4D797CEA6B432EF0EEFED
:1019F0004C412B12850A6DE839940C88A265477416
:101A00006F3D60DCB1D08B16FE605A00000000C252
:101A10000100000008020EB596B80E4D3453F93897
:101A20006DE4D797CEA6B432EF0EEF4C412B128562
:101A30000A6DE839940C88A26547746F3D60DCB18B
:101A4000D08B16FE605A00000000C20100000008A2
:101A5000020EB596B80E4D3453F9386DE4D797CED3
:101A6000A6B432EF0EEF4C412B12850A6DE8399483
:101A70000C88A26547746F3D60DCB1D08B16FE60A8
:101A80005A00000000C20100000008020EB596B81E
:101A90000E4D3453F9386DE4D797CEA6B432EF0E1D
:101AA000EF4C412B12850A6DE839940C88A26547EA
:101AB000746F3D60DCB1D08B16FE605A00000000F0
:101AC000C20100000008020EB596B80E4D3453F95D
:101AD000386DE4D797CEA6B432EF0EEF4C412B12FF
:101AE000850A6DE839940C88A26547746F3D60DC07
:101AF000B1D08B16FE605A00000000C20100000049
:101B000008020EB596B80E4D3453F9386DE4D797E8
:101B1000CEA6B432EF0EEF4C412B12850A6DE83998
:101B2000940C88A26547746F3D60DCB1D08B16FEC3
:101B3000605A00000000C20100000008020EB596C5
:101B4000B80E4D3453F9386DE4D797CEA6B432EFC2
:101B50000EEF4C412B12850A6DE839940C88A26572
:101B600047746F3D60DCB1D08B16FE605A000000F8
:101B700000C20100000008020EB596B80E4D3453A5
:101B8000F9386DE4D797CEA6B432EF0EEF4C412B67
:101B900012850A6DE839940C88A26547746F3D6020
:101BA000DCB1D08B16FE605A00000000C2010000BC
:101BB0000008020EB596B80E4D3453F9386DE4D7CF
:101BC00097CEA6B432EF0EEF4C412B12850A6DE88A
:101BD00039940C88A26547746F3D60DCB1D08B16D8
:101BE000FE605A00000000C20100000008020EB5AD
:101BF00096B80E4D3453F9386DE4D797CEA6B4326B
:101C0000EF0EEF4C412B12850A6DE839940C88A237
:101C10006547746F3D60DCB1D08B16FE605A0000E2
:101C20000000C20100000008020EB596B80E4D3447
:101C300053F9386DE4D797CEA6B432EF0EEF4C418E
:101C40002B12850A6DE839940C88A26547746F3DA4
:101C500060DCB1D08B16FE605A00000000C20100AB
:101C6000000008020EB596B80E4D3453F9386DE4F5
:101C7000D797CEA6B432EF0EEF4C412B12850A6DEA
:101C8000E839940C88A26547746F3D60DCB1D08B55
:101C900016FE605A00000000C20100000008020E9B
:101CA000B596B80E4D3453F9386DE4D797CEA6B437
:101CB00032EF0EEF4C412B12850A6DE839940C88F7
:101CC000A26547746F3D60DCB1D08B16FE605A0090
:101CD000000000C20100000008020EB596B80E4DCB
:101CE0003453F9386DE4D797CEA6B432EF0EEF4CEB
:101CF000412B12850A6DE839940C88A26547746FF0
:101D00003D60DCB1D08B16FE605A00000000C201BD
:101D100000000008020EB596B80E4D3453F9386D28
:101D2000E4D797CEA6B432EF0EEF4C412B12850AC2
:101D30006DE839940C88A26547746F3D60DCB1D0C2
:101D40008B16FE605A00000000C20100000008026D
:101D50000EB596B80E4D3453F9386DE4D797CEA62C
:101D6000B432EF0EEF4C412B12850A6DE839940C1A
:101D700088A26547746F3D60DCB1D08B16FE605A57
:101D800000000000C20100000008020EB596B80E67
:101D90004D3453F9386DE4D797CEA6B432EF0EEF39
:101DA0004C412B12850A6DE839940C88A265477462
:101DB0006F3D60DCB1D08B16FE605A00000000C29F
:101DC0000100000008020EB596B80E4D3453F938E4
:101DD0006DE4D797CEA6B432EF0EEF4C412B1285AF
:101DE0000A6DE839940C88A26547746F3D60DCB1D8
:101DF000D08B16FE605A00000000C20100000008EF
:101E0000020EB596B80E4D3453F9386DE4D797CE1F
:101E1000A6B432EF0EEF4C412B12850A6DE83994CF
:101E20000C88A26547746F3D60DCB1D08B16FE60F4
:101E30005A00000000C20100000008020EB596B86A
:101E40000E4D3453F9386DE4D797CEA6B432EF0E69
:101E5000EF4C412B12850A6DE839940C88A2654736
:101E6000746F3D60DCB1D08B16FE605A000000003C
:101E7000C20100000008020EB596B80E4D3453F9A9
:101E8000386DE4D797CEA6B432EF0EEF4C412B124B
:101E9000850A6DE839940C88A26547746F3D60DC53
:101EA000B1D08B16FE605A00000000C20100000095
:101EB00008020EB596B80E4D3453F9386DE4D79735
:101EC000CEA6B432EF0EEF4C412B12850A6DE839E5
:101ED000940C88A26547746F3D60DCB1D08B16FE10
:101EE000605A00000000C20100000008020EB59612
:101EF000B80E4D3453F9386DE4D797CEA6B432EF0F
:101F00000EEF4C412B12850A6DE839940C88A265BE
:101F100047746F3D60DCB1D08B16FE605A00000044
:101F200000C20100000008020EB596B80E4D3453F1
:101F3000F9386DE4D797CEA6B432EF0EEF4C412BB3
:101F400012850A6DE839940C88A26547746F3D606C
:101F5000DCB1D08B16FE605A00000000C201000008
:101F60000008020EB596B80E4D3453F9386DE4D71B
:101F700097CEA6B432EF0EEF4C412B12850A6DE8D6
:101F800039940C88A26547746F3D60DCB1D08B1624
:101F9000FE605A00000000C20100000008020EB5F9
:101FA00096B80E4D3453F9386DE4D797CEA6B432B7
:101FB000EF0EEF4C412B12850A6DE839940C88A284
:101FC0006547746F3D60DCB1D08B16FE605A00002F
:101FD0000000C20100000008020EB596B80E4D3494
:101FE00053F9386DE4D797CEA6B432EF0EEF4C41DB
:101FF0002B12850A6DE839940C88A26547746F3DF1
:1020000060DCB1D08B16FE605A00000000C20100F7
:10201000000008020EB596B80E4D3453F9386DE441
:10202000D797CEA6B432EF0EEF4C412B12850A6D36
:10203000E839940C88A26547746F3D60DCB1D08BA1
:1020400016FE605A00000000C20100000008020EE7
:10205000B596B80E4D3453F9386DE4D797CEA6B483
:1020600032EF0EEF4C412B12850A6DE839940C8843
:10207000A26547746F3D60DCB1D08B16FE605A00DC
:10208000000000C20100000008020EB596B80E4D17
:102090003453F9386DE4D797CEA6B432EF0EEF4C37
:1020A000412B12850A6DE839940C88A26547746F3C
:1020B0003D60DCB1D08B16FE605A00000000C2010A
:1020C00000000008020EB596B80E4D3453F9386D75
:1020D000E4D797CEA6B432EF0EEF4C412B12850A0F
:1020E0006DE839940C88A26547746F3D60DCB1D00F
:1020F0008B16FE605A00000000C2010000000802BA
:102100000EB596B80E4D3453F9386DE4D797CEA678
:10211000B432EF0EEF4C412B12850A6DE839940C66
:1021200088A26547746F3D60DCB1D08B16FE605AA3
:1021300000000000C20100000008020EB596B80EB3
:102140004D3453F9386DE4D797CEA6B432EF0EEF85
:102150004C412B12850A6DE839940C88A2654774AE
:102160006F3D60DCB1D08B16FE605A00000000C2EB
:102170000100000008020EB596B80E4D3453F93830
:102180006DE4D797CEA6B432EF0EEF4C412B1285FB
:102190000A6DE839940C88A26547746F3D60DCB124
:1021A000D08B16FE605A00000000C201000000083B
:1021B000020EB596B80E4D3453F9386DE4D797CE6C
:1021C000A6B432EF0EEF4C412B12850A6DE839941C
:1021D0000C88A26547746F3D60DCB1D08B16FE6041
:1021E0005A00000000C20100000008020EB596B8B7
:1021F0000E4D3453F9386DE4D797CEA6B432EF0EB6
:10220000EF4C412B12850A6DE839940C88A2654782
:10221000746F3D60DCB1D08B16FE605A0000000088
:10222000C20100000008020EB596B80E4D3453F9F5
:10223000386DE4D797CEA6B432EF0EEF4C412B1297
:10224000850A6DE839940C88A26547746F3D60DC9F
:10225000B1D08B16FE605A00000000C201000000E1
:1022600008020EB596B80E4D3453F9386DE4D79781
:10227000CEA6B432EF0EEF4C412B12850A6DE83931
:10228000940C88A26547746F3D60DCB1D08B16FE5C
:10229000605A00000000C20100000008020EB5965E
:1022A000B80E4D3453F9386DE4D797CEA6B432EF5B
:1022B0000EEF4C412B12850A6DE839940C88A2650B
:1022C00047746F3D60DCB1D08B16FE605A00000091
:1022D00000C20100000008020EB596B80E4D34533E
:1022E000F9386DE4D797CEA6B432EF0EEF4C412B00
:1022F00012850A6DE839940C88A26547746F3D60B9
:10230000DCB1D08B16FE605A00000000C201000054
:102310000008020EB596B80E4D3453F9386DE4D767
:1023200097CEA6B432EF0EEF4C412B12850A6DE822
:1023300039940C88A26547746F3D60DCB1D08B1670
:10234000FE605A00000000C20100000008020EB545
:1023500096B80E4D3453F9386DE4D797CEA6B43203
:10236000EF0EEF4C412B12850A6DE839940C88A2D0
:102370006547746F3D60DCB1D08B16FE605A00007B
:102380000000C20100000008020EB596B80E4D34E0
:1023900053F9386DE4D797CEA6B432EF0EEF4C4127
:1023A0002B12850A6DE839940C88A26547746F3D3D
:1023B00060DCB1D08B16FE605A00000000C2010044
:1023C000000008020EB596B80E4D3453F9386DE48E
:1023D000D797CEA6B432EF0EEF4C412B12850A6D83
:1023E000E839940C88A26547746F3D60DCB1D08BEE
:1023F00016FE605A00000000C20100000008020E34
:10240000B596B80E4D3453F9386DE4D797CEA6B4CF
:1024100032EF0EEF4C412B12850A6DE839940C888F
:10242000A26547746F3D60DCB1D08B16FE605A0028
:10243000000000C20100000008020EB596B80E4D63
:102440003453F9386DE4D797CEA6B432EF0EEF4C83
:10245000412B12850A6DE839940C88A26547746F88
:102460003D60DCB1D08B16FE605A00000000C20156
:1024700000000008020EB596B80E4D3453F9386DC1
:10248000E4D797CEA6B432EF0EEF4C412B12850A5B
:102490006DE839940C88A26547746F3D60DCB1D05B
:1024A0008B16FE605A00000000C201000000080206
:1024B0000EB596B80E4D3453F9386DE4D797CEA6C5
:1024C000B432EF0EEF4C412B12850A6DE839940CB3
:1024D00088A26547746F3D60DCB1D08B16FE605AF0
:1024E00000000000C20100000008020EB596B80E00
:1024F0004D3453F9386DE4D797CEA6B432EF0EEFD2
:102500004C412B12850A6DE839940C88A2654774FA
:102510006F3D60DCB1D08B16FE605A00000000C237
:102520000100000008020EB596B80E4D3453F9387C
:102530006DE4D797CEA6B432EF0EEF4C412B128547
:102540000A6DE839940C88A26547746F3D60DCB170
:10255000D08B16FE605A00000000C2010000000887
:10256000020EB596B80E4D3453F9386DE4D797CEB8
:10257000A6B432EF0EEF4C412B12850A6DE8399468
:102580000C88A26547746F3D60DCB1D08B16FE608D
:102590005A00000000C20100000008020EB596B803
:1025A0000E4D3453F9386DE4D797CEA6B432EF0E02
:1025B000EF4C412B12850A6DE839940C88A26547CF
:1025C000746F3D60DCB1D08B16FE605A00000000D5
:1025D000C20100000008020EB596B80E4D3453F942
:1025E000386DE4D797CEA6B432EF0EEF4C412B12E4
:1025F000850A6DE839940C88A26547746F3D60DCEC
:10260000B1D08B16FE605A00000000C2010000002D
:1026100008020EB596B80E4D3453F9386DE4D797CD
:10262000CEA6B432EF0EEF4C412B12850A6DE8397D
:10263000940C88A26547746F3D60DCB1D08B16FEA8
:10264000605A00000000C20100000008020EB596AA
:10265000B80E4D3453F9386DE4D797CEA6B432EFA7
:102660000EEF4C412B12850A6DE839940C88A26557
:1026700047746F3D60DCB1D08B16FE605A000000DD
:1026800000C20100000008020EB596B80E4D34538A
:10269000F9386DE4D797CEA6B432EF0EEF4C412B4C
:1026A00012850A6DE839940C88A26547746F3D6005
:1026B000DCB1D08B16FE605A00000000C2010000A1
:1026C0000008020EB596B80E4D3453F9386DE4D7B4
:1026D00097CEA6B432EF0EEF4C412B12850A6DE86F
:1026E00039940C88A26547746F3D60DCB1D08B16BD
:1026F000FE605A00000000C20100000008020EB592
:1027000096B80E4D3453F9386DE4D797CEA6B4324F
:10271000EF0EEF4C412B12850A6DE839940C88A21C
:102720006547746F3D60DCB1D08B16FE605A0000C7
:102730000000C20100000008020EB596B80E4D342C
:1027400053F9386DE4D797CEA6B432EF0EEF4C4173
:102750002B12850A6DE839940C88A26547746F3D89
:1027600060DCB1D08B16FE605A00000000C2010090
:10277000000008020EB596B80E4D3453F9386DE4DA
:10278000D797CEA6B432EF0EEF4C412B12850A6DCF
:10279000E839940C88A26547746F3D60DCB1D08B3A
:1027A00016FE605A00000000C20100000008020E80
:1027B000B596B80E4D3453F9386DE4D797CEA6B41C
:1027C00032EF0EEF4C412B12850A6DE839940C88DC
:1027D000A26547746F3D60DCB1D08B16FE605A0075
:1027E000000000C20100000008020EB596B80E4DB0
:1027F0003453F9386DE4D797CEA6B432EF0EEF4CD0
:10280000412B12850A6DE839940C88A26547746FD4
:102810003D60DCB1D08B16FE605A00000000C201A2
:1028200000000008020EB596B80E4D3453F9386D0D
:10283000E4D797CEA6B432EF0EEF4C412B12850AA7
:102840006DE839940C88A26547746F3D60DCB1D0A7
:102850008B16FE605A00000000C201000000080252
:102860000EB596B80E4D3453F9386DE4D797CEA611
:10287000B432EF0EEF4C412B12850A6DE839940CFF
:1028800088A26547746F3D60DCB1D08B16FE605A3C
:1028900000000000C20100000008020EB596B80E4C
:1028A0004D3453F9386DE4D797CEA6B432EF0EEF1E
:1028B0004C412B12850A6DE839940C88A265477447
:1028C0006F3D60DCB1D08B16FE605A00000000C284
:1028D0000100000008020EB596B80E4D3453F938C9
:1028E0006DE4D797CEA6B432EF0EEF4C412B128594
:1028F0000A6DE839940C88A26547746F3D60DCB1BD
:10290000D08B16FE605A00000000C20100000008D3
:10291000020EB596B80E4D3453F9386DE4D797CE04
:10292000A6B432EF0EEF4C412B12850A6DE83994B4
:102930000C88A26547746F3D60DCB1D08B16FE60D9
:102940005A00000000C20100000008020EB596B84F
:102950000E4D3453F9386DE4D797CEA6B432EF0E4E
:10296000EF4C412B12850A6DE839940C88A265471B
:10297000746F3D60DCB1D08B16FE605A0000000021
:10298000C20100000008020EB596B80E4D3453F98E
:10299000386DE4D797CEA6B432EF0EEF4C412B1230
:1029A000850A6DE839940C88A26547746F3D60DC38
:1029B000B1D08B16FE605A00000000C2010000007A
:1029C00008020EB596B80E4D3453F9386DE4D7971A
:1029D000CEA6B432EF0EEF4C412B12850A6DE839CA
:1029E000940C88A26547746F3D60DCB1D08B16FEF5
:1029F000605A00000000C20100000008020EB596F7
:102A0000B80E4D3453F9386DE4D797CEA6B432EFF3
:102A10000EEF4C412B12850A6DE839940C88A265A3
:102A200047746F3D60DCB1D08B16FE605A00000029
:102A300000C20100000008020EB596B80E4D3453D6
:102A4000F9386DE4D797CEA6B432EF0EEF4C412B98
:102A500012850A6DE839940C88A26547746F3D6051
:102A6000DCB1D08B16FE605A00000000C2010000ED
:102A70000008020EB596B80E4D3453F9386DE4D700
:102A800097CEA6B432EF0EEF4C412B12850A6DE8BB
:102A900039940C88A26547746F3D60DCB1D08B1609
:102AA000FE605A00000000C20100000008020EB5DE
:102AB00096B80E4D3453F9386DE4D797CEA6B4329C
:102AC000EF0EEF4C412B12850A6DE839940C88A269
:102AD0006547746F3D60DCB1D08B16FE605A000014
:102AE0000000C20100000008020EB596B80E4D3479
:102AF00053F9386DE4D797CEA6B432EF0EEF4C41C0
:102B00002B12850A6DE839940C88A26547746F3DD5
:102B100060DCB1D08B16FE605A00000000C20100DC
:102B2000000008020EB596B80E4D3453F9386DE426
:102B3000D797CEA6B432EF0EEF4C412B12850A6D1B
:102B4000E839940C88A26547746F3D60DCB1D08B86
:102B500016FE605A00000000C20100000008020ECC
:102B6000B596B80E4D3453F9386DE4D797CEA6B468
:102B700032EF0EEF4C412B12850A6DE839940C8828
:102B8000A26547746F3D60DCB1D08B16FE605A00C1
:102B9000000000C20100000008020EB596B80E4DFC
:102BA0003453F9386DE4D797CEA6B432EF0EEF4C1C
:102BB000412B12850A6DE839940C88A26547746F21
:102BC0003D60DCB1D08B16FE605A00000000C201EF
:102BD00000000008020EB596B80E4D3453F9386D5A
:102BE000E4D797CEA6B432EF0EEF4C412B12850AF4
:102BF0006DE839940C88A26547746F3D60DCB1D0F4
:102C00008B16FE605A00000000C20100000008029E
:102C10000EB596B80E4D3453F9386DE4D797CEA65D
:102C2000B432EF0EEF4C412B12850A6DE839940C4B
:102C300088A26547746F3D60DCB1D08B16FE605A88
:102C400000000000C20100000008020EB596B80E98
:102C50004D3453F9386DE4D797CEA6B432EF0EEF6A
:102C60004C412B12850A6DE839940C88A265477493
:102C70006F3D60DCB1D08B16FE605A00000000C2D0
:102C80000100000008020EB596B80E4D3453F93815
:102C90006DE4D797CEA6B432EF0EEF4C412B1285E0
:102CA0000A6DE839940C88A26547746F3D60DCB109
:102CB000D08B16FE605A00000000C2010000000820
:102CC000020EB596B80E4D3453F9386DE4D797CE51
:102CD000A6B432EF0EEF4C412B12850A6DE8399401
:102CE0000C88A26547746F3D60DCB1D08B16FE6026
:102CF0005A00000000C20100000008020EB596B89C
:102D00000E4D3453F9386DE4D797CEA6B432EF0E9A
:102D1000EF4C412B12850A6DE839940C88A2654767
:102D2000746F3D60DCB1D08B16FE605A000000006D
:102D3000C20100000008020EB596B80E4D3453F9DA
:102D4000386DE4D797CEA6B432EF0EEF4C412B127C
:102D5000850A6DE839940C88A26547746F3D60DC84
:102D6000B1D08B16FE605A00000000C201000000C6
:102D700008020EB596B80E4D3453F9386DE4D79766
:102D8000CEA6B432EF0EEF4C412B12850A6DE83916
:102D9000940C88A26547746F3D60DCB1D08B16FE41
:102DA000605A00000000C20100000008020EB59643
:102DB000B80E4D3453F9386DE4D797CEA6B432EF40
:102DC0000EEF4C412B12850A6DE839940C88A265F0
:102DD00047746F3D60DCB1D08B16FE605A00000076
:102DE00000C20100000008020EB596B80E4D345323
:102DF000F9386DE4D797CEA6B432EF0EEF4C412BE5
:102E000012850A6DE839940C88A26547746F3D609D
:102E1000DCB1D08B16FE605A00000000C201000039
:102E20000008020EB596B80E4D3453F9386DE4D74C
:102E300097CEA6B432EF0EEF4C412B12850A6DE807
:102E400039940C88A26547746F3D60DCB1D08B1655
:102E5000FE605A00000000C20100000008020EB52A
:102E600096B80E4D3453F9386DE4D797CEA6B432E8
:102E7000EF0EEF4C412B12850A6DE839940C88A2B5
:102E80006547746F3D60DCB1D08B16FE605A000060
:102E90000000C20100000008020EB596B80E4D34C5
:102EA00053F9386DE4D797CEA6B432EF0EEF4C410C
:102EB0002B12850A6DE839940C88A26547746F3D22
:102EC00060DCB1D08B16FE605A00000000C2010029
:102ED000000008020EB596B80E4D3453F9386DE473
:102EE000D797CEA6B432EF0EEF4C412B12850A6D68
:102EF000E839940C88A26547746F3D60DCB1D08BD3
:102F000016FE605A00000000C20100000008020E18
:102F1000B596B80E4D3453F9386DE4D797CEA6B4B4
:102F200032EF0EEF4C412B12850A6DE839940C8874
:102F3000A26547746F3D60DCB1D08B16FE605A000D
:102F4000000000C20100000008020EB596B80E4D48
:102F50003453F9386DE4D797CEA6B432EF0EEF4C68
:102F6000412B12850A6DE839940C88A26547746F6D
:102F70003D60DCB1D08B16FE605A00000000C2013B
:102F800000000008020EB596B80E4D3453F9386DA6
:102F9000E4D797CEA6B432EF0EEF4C412B12850A40
:102FA0006DE839940C88A26547746F3D60DCB1D040
:102FB0008B16FE605A00000000C2010000000802EB
:102FC0000EB596B80E4D3453F9386DE4D797CEA6AA
:102FD000B432EF0EEF4C412B12850A6DE839940C98
:102FE00088A26547746F3D60DCB1D08B16FE605AD5
:102FF00000000000C20100000008020EB596B80EE5
:103000004D3453F9386DE4D797CEA6B432EF0EEFB6
:103010004C412B12850A6DE839940C88A2654774DF
:103020006F3D60DCB1D08B16FE605A00000000C21C
:103030000100000008020EB596B80E4D3453F93861
:103040006DE4D797CEA6B432EF0EEF4C412B12852C
:103050000A6DE839940C88A26547746F3D60DCB155
:10306000D08B16FE605A00000000C201000000086C
:10307000020EB596B80E4D3453F9386DE4D797CE9D
:10308000A6B432EF0EEF4C412B12850A6DE839944D
:103090000C88A26547746F3D60DCB1D08B16FE6072
:1030A0005A00000000C20100000008020EB596B8E8
:1030B0000E4D3453F9386DE4D797CEA6B432EF0EE7
:1030C000EF4C412B12850A6DE839940C88A26547B4
:1030D000746F3D60DCB1D08B16FE605A00000000BA
:1030E000C20100000008020EB596B80E4D3453F927
:1030F000386DE4D797CEA6B432EF0EEF4C412B12C9
:10310000850A6DE839940C88A26547746F3D60DCD0
:10311000B1D08B16FE605A00000000C20100000012
:1031200008020EB596B80E4D3453F9386DE4D797B2
:10313000CEA6B432EF0EEF4C412B12850A6DE83962
:10314000940C88A26547746F3D60DCB1D08B16FE8D
:10315000605A00000000C20100000008020EB5968F
:10316000B80E4D3453F9386DE4D797CEA6B432EF8C
:103170000EEF4C412B12850A6DE839940C88A2653C
:1031800047746F3D60DCB1D08B16FE605A000000C2
:1031900000C20100000008020EB596B80E4D34536F
:1031A000F9386DE4D797CEA6B432EF0EEF4C412B31
:1031B00012850A6DE839940C88A26547746F3D60EA
:1031C000DCB1D08B16FE605A00000000C201000086
:1031D0000008020EB596B80E4D3453F9386DE4D799
:1031E00097CEA6B432EF0EEF4C412B12850A6DE854
:1031F00039940C88A26547746F3D60DCB1D08B16A2
:10320000FE605A00000000C20100000008020EB576
:1032100096B80E4D3453F9386DE4D797CEA6B43234
:10322000EF0EEF4C412B12850A6DE839940C88A201
:103230006547746F3D60DCB1D08B16FE605A0000AC
:103240000000C20100000008020EB596B80E4D3411
:1032500053F9386DE4D797CEA6B432EF0EEF4C4158
:103260002B12850A6DE839940C88A26547746F3D6E
:1032700060DCB1D08B16FE605A00000000C2010075
:10328000000008020EB596B80E4D3453F9386DE4BF
:10329000D797CEA6B432EF0EEF4C412B12850A6DB4
:1032A000E839940C88A26547746F3D60DCB1D08B1F
:1032B00016FE605A00000000C20100000008020E65
:1032C000B596B80E4D3453F9386DE4D797CEA6B401
:1032D00032EF0EEF4C412B12850A6DE839940C88C1
:1032E000A26547746F3D60DCB1D08B16FE605A005A
:1032F000000000C20100000008020EB596B80E4D95
:103300003453F9386DE4D797CEA6B432EF0EEF4CB4
:10331000412B12850A6DE839940C88A26547746FB9
:103320003D60DCB1D08B16FE605A00000000C20187
:1033300000000008020EB596B80E4D3453F9386DF2
:10334000E4D797CEA6B432EF0EEF4C412B12850A8C
:103350006DE839940C88A26547746F3D60DCB1D08C
:103360008B16FE605A00000000C201000000080237
:103370000EB596B80E4D3453F9386DE4D797CEA6F6
:10338000B432EF0EEF4C412B12850A6DE839940CE4
:1033900088A26547746F3D60DCB1D08B16FE605A21
:1033A00000000000C20100000008020EB596B80E31
:1033B0004D3453F9386DE4D797CEA6B432EF0EEF03
:1033C0004C412B12850A6DE839940C88A26547742C
:1033D0006F3D60DCB1D08B16FE605A00000000C269
:1033E0000100000008020EB596B80E4D3453F938AE
:1033F0006DE4D797CEA6B432EF0EEF4C412B128579
:103400000A6DE839940C88A26547746F3D60DCB1A1
:10341000D08B16FE605A00000000C20100000008B8
:10342000020EB596B80E4D3453F9386DE4D797CEE9
:10343000A6B432EF0EEF4C412B12850A6DE8399499
:103440000C88A26547746F3D60DCB1D08B16FE60BE
:103450005A00000000C20100000008020EB596B834
:103460000E4D3453F9386DE4D797CEA6B432EF0E33
:10347000EF4C412B12850A6DE839940C88A2654700
:10348000746F3D60DCB1D08B16FE605A0000000006
:10349000C20100000008020EB596B80E4D3453F973
:1034A000386DE4D797CEA6B432EF0EEF4C412B1215
:1034B000850A6DE839940C88A26547746F3D60DC1D
:1034C000B1D08B16FE605A00000000C2010000005F
:1034D00008020EB596B80E4D3453F9386DE4D797FF
:1034E000CEA6B432EF0EEF4C412B12850A6DE839AF
:1034F000940C88A26547746F3D60DCB1D08B16FEDA
:10350000605A00000000C20100000008020EB596DB
:10351000B80E4D3453F9386DE4D797CEA6B432EFD8
:103520000EEF4C412B12850A6DE839940C88A26588
:1035300047746F3D60DCB1D08B16FE605A0000000E
:1035400000C20100000008020EB596B80E4D3453BB
:10355000F9386DE4D797CEA6B432EF0EEF4C412B7D
:1035600012850A6DE839940C88A26547746F3D6036
:10357000DCB1D08B16FE605A00000000C2010000D2
:103580000008020EB596B80E4D3453F9386DE4D7E5
:1035900097CEA6B432EF0EEF4C412B12850A6DE8A0
:1035A00039940C88A26547746F3D60DCB1D08B16EE
:1035B000FE605A00000000C20100000008020EB5C3
:1035C00096B80E4D3453F9386DE4D797CEA6B43281
:1035D000EF0EEF4C412B12850A6DE839940C88A24E
:1035E0006547746F3D60DCB1D08B16FE605A0000F9
:1035F0000000C20100000008020EB596B80E4D345E
:1036000053F9386DE4D797CEA6B432EF0EEF4C41A4
:103610002B12850A6DE839940C88A26547746F3DBA
:1036200060DCB1D08B16FE605A00000000C20100C1
:10363000000008020EB596B80E4D3453F9386DE40B
:10364000D797CEA6B432EF0EEF4C412B12850A6D00
:10365000E839940C88A26547746F3D60DCB1D08B6B
:1036600016FE605A00000000C20100000008020EB1
:10367000B596B80E4D3453F9386DE4D797CEA6B44D
:1036800032EF0EEF4C412B12850A6DE839940C880D
:10369000A26547746F3D60DCB1D08B16FE605A00A6
:1036A000000000C20100000008020EB596B80E4DE1
:1036B0003453F9386DE4D797CEA6B432EF0EEF4C01
:1036C000412B12850A6DE839940C88A26547746F06
:1036D0003D60DCB1D08B16FE605A00000000C201D4
:1036E00000000008020EB596B80E4D3453F9386D3F
:1036F000E4D797CEA6B432EF0EEF4C412B12850AD9
:103700006DE839940C88A26547746F3D60DCB1D0D8
:103710008B16FE605A00000000C201000000080283
:103720000EB596B80E4D3453F9386DE4D797CEA642
:10373000B432EF0EEF4C412B12850A6DE839940C30
:1037400088A26547746F3D60DCB1D08B16FE605A6D
:1037500000000000C20100000008020EB596B80E7D
:103760004D3453F9386DE4D797CEA6B432EF0EEF4F
:103770004C412B12850A6DE839940C88A265477478
:103780006F3D60DCB1D08B16FE605A00000000C2B5
:103790000100000008020EB596B80E4D3453F938FA
:1037A0006DE4D797CEA6B432EF0EEF4C412B1285C5
:1037B0000A6DE839940C88A26547746F3D60DCB1EE
:1037C000D08B16FE605A00000000C2010000000805
:1037D000020EB596B80E4D3453F9386DE4D797CE36
:1037E000A6B432EF0EEF4C412B12850A6DE83994E6
:1037F0000C88A26547746F3D60DCB1D08B16FE600B
:103800005A00000000C20100000008020EB596B880
:103810000E4D3453F9386DE4D797CEA6B432EF0E7F
:10382000EF4C412B12850A6DE839940C88A265474C
:10383000746F3D60DCB1D08B16FE605A0000000052
:10384000C20100000008020EB596B80E4D3453F9BF
:10385000386DE4D797CEA6B432EF0EEF4C412B1261
:10386000850A6DE839940C88A26547746F3D60DC69
:10387000B1D08B16FE605A00000000C201000000AB
:1038800008020EB596B80E4D3453F9386DE4D7974B
:10389000CEA6B432EF0EEF4C412B12850A6DE839FB
:1038A000940C88A26547746F3D60DCB1D08B16FE26
:1038B000605A00000000C20100000008020EB59628
:1038C000B80E4D3453F9386DE4D797CEA6B432EF25
:1038D0000EEF4C412B12850A6DE839940C88A265D5
:1038E00047746F3D60DCB1D08B16FE605A0000005B
:1038F00000C20100000008020EB596B80E4D345308
:10390000F9386DE4D797CEA6B432EF0EEF4C412BC9
:1039100012850A6DE839940C88A26547746F3D6082
:10392000DCB1D08B16FE605A00000000C20100001E
:103930000008020EB596B80E4D3453F9386DE4D731
:1039400097CEA6B432EF0EEF4C412B12850A6DE8EC
:1039500039940C88A26547746F3D60DCB1D08B163A
:10396000FE605A00000000C20100000008020EB50F
:1039700096B80E4D3453F9386DE4D797CEA6B432CD
:10398000EF0EEF4C412B12850A6DE839940C88A29A
:103990006547746F3D60DCB1D08B16FE605A000045
:1039A0000000C20100000008020EB596B80E4D34AA
:1039B00053F9386DE4D797CEA6B432EF0EEF4C41F1
:1039C0002B12850A6DE839940C88A26547746F3D07
:1039D00060DCB1D08B16FE605A00000000C201000E
:1039E000000008020EB596B80E4D3453F9386DE458
:1039F000D797CEA6B432EF0EEF4C412B12850A6D4D
:103A0000E839940C88A26547746F3D60DCB1D08BB7
:103A100016FE605A00000000C20100000008020EFD
:103A2000B596B80E4D3453F9386DE4D797CEA6B499
:103A300032EF0EEF4C412B12850A6DE839940C8859
:103A4000A26547746F3D60DCB1D08B16FE605A00F2
:103A5000000000C20100000008020EB596B80E4D2D
:103A60003453F9386DE4D797CEA6B432EF0EEF4C4D
:103A7000412B12850A6DE839940C88A26547746F52
:103A80003D60DCB1D08B16FE605A00000000C20120
:103A900000000008020EB596B80E4D3453F9386D8B
:103AA000E4D797CEA6B432EF0EEF4C412B12850A25
:103AB0006DE839940C88A26547746F3D60DCB1D025
:103AC0008B16FE605A00000000C2010000000802D0
:103AD0000EB596B80E4D3453F9386DE4D797CEA68F
:103AE000B432EF0EEF4C412B12850A6DE839940C7D
:103AF00088A26547746F3D60DCB1D08B16FE605ABA
:103B000000000000C20100000008020EB596B80EC9
:103B10004D3453F9386DE4D797CEA6B432EF0EEF9B
:103B20004C412B12850A6DE839940C88A2654774C4
:103B30006F3D60DCB1D08B16FE605A00000000C201
:103B40000100000008020EB596B80E4D3453F93846
:103B50006DE4D797CEA6B432EF0EEF4C412B128511
:103B60000A6DE839940C88A26547746F3D60DCB13A
:103B7000D08B16FE605A00000000C2010000000851
:103B8000020EB596B80E4D3453F9386DE4D797CE82
:103B9000A6B432EF0EEF4C412B12850A6DE8399432
:103BA0000C88A26547746F3D60DCB1D08B16FE6057
:103BB0005A00000000C20100000008020EB596B8CD
:103BC0000E4D3453F9386DE4D797CEA6B432EF0ECC
:103BD000EF4C412B12850A6DE839940C88A2654799
:103BE000746F3D60DCB1D08B16FE605A000000009F
:103BF000C20100000008020EB596B80E4D3453F90C
:103C0000386DE4D797CEA6B432EF0EEF4C412B12AD
:103C1000850A6DE839940C88A26547746F3D60DCB5
:103C2000B1D08B16FE605A00000000C201000000F7
:103C300008020EB596B80E4D3453F9386DE4D79797
:103C4000CEA6B432EF0EEF4C412B12850A6DE83947
:103C5000940C88A26547746F3D60DCB1D08B16FE72
:103C6000605A00000000C20100000008020EB59674
:103C7000B80E4D3453F9386DE4D797CEA6B432EF71
:103C80000EEF4C412B12850A6DE839940C88A26521
:103C900047746F3D60DCB1D08B16FE605A000000A7
:103CA00000C20100000008020EB596B80E4D345354
:103CB000F9386DE4D797CEA6B432EF0EEF4C412B16
:103CC00012850A6DE839940C88A26547746F3D60CF
:103CD000DCB1D08B16FE605A00000000C20100006B
:103CE0000008020EB596B80E4D3453F9386DE4D77E
:103CF00097CEA6B432EF0EEF4C412B12850A6DE839
:103D000039940C88A26547746F3D60DCB1D08B1686
:103D1000FE605A00000000C20100000008020EB55B
:103D200096B80E4D3453F9386DE4D797CEA6B43219
:103D3000EF0EEF4C412B12850A6DE839940C88A2E6
:103D40006547746F3D60DCB1D08B16FE605A000091
:103D50000000C20100000008020EB596B80E4D34F6
:103D600053F9386DE4D797CEA6B432EF0EEF4C413D
:103D70002B12850A6DE839940C88A26547746F3D53
:103D800060DCB1D08B16FE605A00000000C201005A
:103D9000000008020EB596B80E4D3453F9386DE4A4
:103DA000D797CEA6B432EF0EEF4C412B12850A6D99
:103DB000E839940C88A26547746F3D60DCB1D08B04
:103DC00016FE605A00000000C20100000008020E4A
:103DD000B596B80E4D3453F9386DE4D797CEA6B4E6
:103DE00032EF0EEF4C412B12850A6DE839940C88A6
:103DF000A26547746F3D60DCB1D08B16FE605A003F
:103E0000000000C20100000008020EB596B80E4D79
:103E10003453F9386DE4D797CEA6B432EF0EEF4C99
:103E2000412B12850A6DE839940C88A26547746F9E
:103E30003D60DCB1D08B16FE605A00000000C2016C
:103E400000000008020EB596B80E4D3453F9386DD7
:103E5000E4D797CEA6B432EF0EEF4C412B12850A71
:103E60006DE839940C88A26547746F3D60DCB1D071
:103E70008B16FE605A00000000C20100000008021C
:103E80000EB596B80E4D3453F9386DE4D797CEA6DB
:103E9000B432EF0EEF4C412B12850A6DE839940CC9
:103EA00088A26547746F3D60DCB1D08B16FE605A06
:103EB00000000000C20100000008020EB596B80E16
:103EC0004D3453F9386DE4D797CEA6B432EF0EEFE8
:103ED0004C412B12850A6DE839940C88A265477411
:103EE0006F3D60DCB1D08B16FE605A00000000C24E
:103EF0000100000008020EB596B80E4D3453F93893
:103F00006DE4D797CEA6B432EF0EEF4C412B12855D
:103F10000A6DE839940C88A26547746F3D60DCB186
:103F2000D08B16FE605A00000000C201000000089D
:103F3000020EB596B80E4D3453F9386DE4D797CECE
:103F4000A6B432EF0EEF4C412B12850A6DE839947E
:103F50000C88A26547746F3D60DCB1D08B16FE60A3
:103F60005A00000000C20100000008020EB596B819
:103F70000E4D3453F9386DE4D797CEA6B432EF0E18
:103F8000EF4C412B12850A6DE839940C88A26547E5
:103F9000746F3D60DCB1D08B16FE605A00000000EB
:103FA000C20100000008020EB596B80E4D3453F958
:103FB000386DE4D797CEA6B432EF0EEF4C412B12FA
:103FC000850A6DE839940C88A26547746F3D60DC02
:103FD000B1D08B16FE605A00000000C20100000044
:103FE00008020EB596B80E4D3453F9386DE4D797E4
:103FF000CEA6B432EF0EEF4C412B12850A6DE83994
:10400000940C88A26547746F3D60DCB1D08B16FEBE
:10401000605A00000000C20100000008020EB596C0
:10402000B80E4D3453F9386DE4D797CEA6B432EFBD
:104030000EEF4C412B12850A6DE839940C88A2656D
:1040400047746F3D60DCB1D08B16FE605A000000F3
:1040500000C20100000008020EB596B80E4D3453A0
:10406000F9386DE4D797CEA6B432EF0EEF4C412B62
:1040700012850A6DE839940C88A26547746F3D601B
:10408000DCB1D08B16FE605A00000000C2010000B7
:104090000008020EB596B80E4D3453F9386DE4D7CA
:1040A00097CEA6B432EF0EEF4C412B12850A6DE885
:1040B00039940C88A26547746F3D60DCB1D08B16D3
:1040C000FE605A00000000C20100000008020EB5A8
:1040D00096B80E4D3453F9386DE4D797CEA6B43266
:1040E000EF0EEF4C412B12850A6DE839940C88A233
:1040F0006547746F3D60DCB1D08B16FE605A0000DE
:104100000000C20100000008020EB596B80E4D3442
:1041100053F9386DE4D797CEA6B432EF0EEF4C4189
:104120002B12850A6DE839940C88A26547746F3D9F
:1041300060DCB1D08B16FE605A00000000C20100A6
:10414000000008020EB596B80E4D3453F9386DE4F0
:10415000D797CEA6B432EF0EEF4C412B12850A6DE5
:10416000E839940C88A26547746F3D60DCB1D08B50
:1041700016FE605A00000000C20100000008020E96
:10418000B596B80E4D3453F9386DE4D797CEA6B432
:1041900032EF0EEF4C412B12850A6DE839940C88F2
:1041A000A26547746F3D60DCB1D08B16FE605A008B
:1041B000000000C20100000008020EB596B80E4DC6
:1041C0003453F9386DE4D797CEA6B432EF0EEF4CE6
:1041D000412B12850A6DE839940C88A26547746FEB
:1041E0003D60DCB1D08B16FE605A00000000C201B9
:1041F00000000008020EB596B80E4D3453F9386D24
:10420000E4D797CEA6B432EF0EEF4C412B12850ABD
:104210006DE839940C88A26547746F3D60DCB1D0BD
:104220008B16FE605A00000000C201000000080268
:104230000EB596B80E4D3453F9386DE4D797CEA627
:10424000B432EF0EEF4C412B12850A6DE839940C15
:1042500088A26547746F3D60DCB1D08B16FE605A52
:1042600000000000C20100000008020EB596B80E62
:104270004D3453F9386DE4D797CEA6B432EF0EEF34
:104280004C412B12850A6DE839940C88A26547745D
:104290006F3D60DCB1D08B16FE605A00000000C29A
:1042A0000100000008020EB596B80E4D3453F938DF
:1042B0006DE4D797CEA6B432EF0EEF4C412B1285AA
:1042C0000A6DE839940C88A26547746F3D60DCB1D3
:1042D000D08B16FE605A00000000C20100000008EA
:1042E000020EB596B80E4D3453F9386DE4D797CE1B
:1042F000A6B432EF0EEF4C412B12850A6DE83994CB
:104300000C88A26547746F3D60DCB1D08B16FE60EF
:104310005A00000000C20100000008020EB596B865
:104320000E4D3453F9386DE4D797CEA6B432EF0E64
:10433000EF4C412B12850A6DE839940C88A2654731
:10434000746F3D60DCB1D08B16FE605A0000000037
:10435000C20100000008020EB596B80E4D3453F9A4
:10436000386DE4D797CEA6B432EF0EEF4C412B1246
:10437000850A6DE839940C88A26547746F3D60DC4E
:10438000B1D08B16FE605A00000000C20100000090
:1043900008020EB596B80E4D3453F9386DE4D79730
:1043A000CEA6B432EF0EEF4C412B12850A6DE839E0
:1043B000940C88A26547746F3D60DCB1D08B16FE0B
:1043C000605A00000000C20100000008020EB5960D
:1043D000B80E4D3453F9386DE4D797CEA6B432EF0A
:1043E0000EEF4C412B12850A6DE839940C88A265BA
:1043F00047746F3D60DCB1D08B16FE605A00000040
:1044000000C20100000008020EB596B80E4D3453EC
:10441000F9386DE4D797CEA6B432EF0EEF4C412BAE
:1044200012850A6DE839940C88A26547746F3D6067
:10443000DCB1D08B16FE605A00000000C201000003
:104440000008020EB596B80E4D3453F9386DE4D716
:1044500097CEA6B432EF0EEF4C412B12850A6DE8D1
:1044600039940C88A26547746F3D60DCB1D08B161F
:10447000FE605A00000000C20100000008020EB5F4
:1044800096B80E4D3453F9386DE4D797CEA6B432B2
:10449000EF0EEF4C412B12850A6DE839940C88A27F
:1044A0006547746F3D60DCB1D08B16FE605A00002A
:1044B0000000C20100000008020EB596B80E4D348F
:1044C00053F9386DE4D797CEA6B432EF0EEF4C41D6
:1044D0002B12850A6DE839940C88A26547746F3DEC
:1044E00060DCB1D08B16FE605A00000000C20100F3
:1044F000000008020EB596B80E4D3453F9386DE43D
:10450000D797CEA6B432EF0EEF4C412B12850A6D31
:10451000E839940C88A26547746F3D60DCB1D08B9C
:1045200016FE605A00000000C20100000008020EE2
:10453000B596B80E4D3453F9386DE4D797CEA6B47E
:1045400032EF0EEF4C412B12850A6DE839940C883E
:10455000A26547746F3D60DCB1D08B16FE605A00D7
:10456000000000C20100000008020EB596B80E4D12
:104570003453F9386DE4D797CEA6B432EF0EEF4C32
:10458000412B12850A6DE839940C88A26547746F37
:104590003D60DCB1D08B16FE605A00000000C20105
:1045A00000000008020EB596B80E4D3453F9386D70
:1045B000E4D797CEA6B432EF0EEF4C412B12850A0A
:1045C0006DE839940C88A26547746F3D60DCB1D00A
:1045D0008B16FE605A00000000C2010000000802B5
:1045E0000EB596B80E4D3453F9386DE4D797CEA674
:1045F000B432EF0EEF4C412B12850A6DE839940C62
:1046000088A26547746F3D60DCB1D08B16FE605A9E
:1046100000000000C20100000008020EB596B80EAE
:104620004D3453F9386DE4D797CEA6B432EF0EEF80
:104630004C412B12850A6DE839940C88A2654774A9
:104640006F3D60DCB1D08B16FE605A00000000C2E6
:104650000100000008020EB596B80E4D3453F9382B
:104660006DE4D797CEA6B432EF0EEF4C412B1285F6
:104670000A6DE839940C88A26547746F3D60DCB11F
:10468000D08B16FE605A00000000C2010000000836
:10469000020EB596B80E4D3453F9386DE4D797CE67
:1046A000A6B432EF0EEF4C412B12850A6DE8399417
:1046B0000C88A26547746F3D60DCB1D08B16FE603C
:1046C0005A00000000C20100000008020EB596B8B2
:1046D0000E4D3453F9386DE4D797CEA6B432EF0EB1
:1046E000EF4C412B12850A6DE839940C88A265477E
:1046F000746F3D60DCB1D08B16FE605A0000000084
:10470000C20100000008020EB596B80E4D3453F9F0
:10471000386DE4D797CEA6B432EF0EEF4C412B1292
:10472000850A6DE839940C88A26547746F3D60DC9A
:10473000B1D08B16FE605A00000000C201000000DC
:1047400008020EB596B80E4D3453F9386DE4D7977C
:10475000CEA6B432EF0EEF4C412B12850A6DE8392C
:10476000940C88A26547746F3D60DCB1D08B16FE57
:10477000605A00000000C20100000008020EB59659
:10478000B80E4D3453F9386DE4D797CEA6B432EF56
:104790000EEF4C412B12850A6DE839940C88A26506
:1047A00047746F3D60DCB1D08B16FE605A0000008C
:1047B00000C20100000008020EB596B80E4D345339
:1047C000F9386DE4D797CEA6B432EF0EEF4C412BFB
:1047D00012850A6DE839940C88A26547746F3D60B4
:1047E000DCB1D08B16FE605A00000000C201000050
:1047F0000008020EB596B80E4D3453F9386DE4D763
:1048000097CEA6B432EF0EEF4C412B12850A6DE81D
:1048100039940C88A26547746F3D60DCB1D08B166B
:10482000FE605A00000000C20100000008020EB540
:1048300096B80E4D3453F9386DE4D797CEA6B432FE
:10484000EF0EEF4C412B12850A6DE839940C88A2CB
:104850006547746F3D60DCB1D08B16FE605A000076
:104860000000C20100000008020EB596B80E4D34DB
:1048700053F9386DE4D797CEA6B432EF0EEF4C4122
:104880002B12850A6DE839940C88A26547746F3D38
:1048900060DCB1D08B16FE605A00000000C201003F
:1048A000000008020EB596B80E4D3453F9386DE489
:1048B000D797CEA6B432EF0EEF4C412B12850A6D7E
:1048C000E839940C88A26547746F3D60DCB1D08BE9
:1048D00016FE605A00000000C20100000008020E2F
:1048E000B596B80E4D3453F9386DE4D797CEA6B4CB
:1048F00032EF0EEF4C412B12850A6DE839940C888B
:10490000A26547746F3D60DCB1D08B16FE605A0023
:10491000000000C20100000008020EB596B80E4D5E
:104920003453F9386DE4D797CEA6B432EF0EEF4C7E
:10493000412B12850A6DE839940C88A26547746F83
:104940003D60DCB1D08B16FE605A00000000C20151
:1049500000000008020EB596B80E4D3453F9386DBC
:10496000E4D797CEA6B432EF0EEF4C412B12850A56
:104970006DE839940C88A26547746F3D60DCB1D056
:104980008B16FE605A00000000C201000000080201
:104990000EB596B80E4D3453F9386DE4D797CEA6C0
:1049A000B432EF0EEF4C412B12850A6DE839940CAE
:1049B00088A26547746F3D60DCB1D08B16FE605AEB
:1049C00000000000C20100000008020EB596B80EFB
:1049D0004D3453F9386DE4D797CEA6B432EF0EEFCD
:1049E0004C412B12850A6DE839940C88A2654774F6
:1049F0006F3D60DCB1D08B16FE605A00000000C233
:104A00000100000008020EB596B80E4D3453F93877
:104A10006DE4D797CEA6B432EF0EEF4C412B128542
:104A20000A6DE839940C88A26547746F3D60DCB16B
:104A3000D08B16FE605A00000000C2010000000882
:104A4000020EB596B80E4D3453F9386DE4D797CEB3
:104A5000A6B432EF0EEF4C412B12850A6DE8399463
:104A60000C88A26547746F3D60DCB1D08B16FE6088
:104A70005A00000000C20100000008020EB596B8FE
:104A80000E4D3453F9386DE4D797CEA6B432EF0EFD
:104A9000EF4C412B12850A6DE839940C88A26547CA
:104AA000746F3D60DCB1D08B16FE605A00000000D0
:104AB000C20100000008020EB596B80E4D3453F93D
:104AC000386DE4D797CEA6B432EF0EEF4C412B12DF
:104AD000850A6DE839940C88A26547746F3D60DCE7
:104AE000B1D08B16FE605A00000000C20100000029
:104AF00008020EB596B80E4D3453F9386DE4D797C9
:104B0000CEA6B432EF0EEF4C412B12850A6DE83978
:104B1000940C88A26547746F3D60DCB1D08B16FEA3
:104B2000605A00000000C20100000008020EB596A5
:104B3000B80E4D3453F9386DE4D797CEA6B432EFA2
:104B40000EEF4C412B12850A6DE839940C88A26552
:104B500047746F3D60DCB1D08B16FE605A000000D8
:104B600000C20100000008020EB596B80E4D345385
:104B7000F9386DE4D797CEA6B432EF0EEF4C412B47
:104B800012850A6DE839940C88A26547746F3D6000
:104B9000DCB1D08B16FE605A00000000C20100009C
:104BA0000008020EB596B80E4D3453F9386DE4D7AF
:104BB00097CEA6B432EF0EEF4C412B12850A6DE86A
:104BC00039940C88A26547746F3D60DCB1D08B16B8
:104BD000FE605A00000000C20100000008020EB58D
:104BE00096B80E4D3453F9386DE4D797CEA6B4324B
:104BF000EF0EEF4C412B12850A6DE839940C88A218
:104C00006547746F3D60DCB1D08B16FE605A0000C2
:104C10000000C20100000008020EB596B80E4D3427
:104C200053F9386DE4D797CEA6B432EF0EEF4C416E
:104C30002B12850A6DE839940C88A26547746F3D84
:104C400060DCB1D08B16FE605A00000000C201008B
:104C5000000008020EB596B80E4D3453F9386DE4D5
:104C6000D797CEA6B432EF0EEF4C412B12850A6DCA
:104C7000E839940C88A26547746F3D60DCB1D08B35
:104C800016FE605A00000000C20100000008020E7B
:104C9000B596B80E4D3453F9386DE4D797CEA6B417
:104CA00032EF0EEF4C412B12850A6DE839940C88D7
:104CB000A26547746F3D60DCB1D08B16FE605A0070
:104CC000000000C20100000008020EB596B80E4DAB
:104CD0003453F9386DE4D797CEA6B432EF0EEF4CCB
:104CE000412B12850A6DE839940C88A26547746FD0
:104CF0003D60DCB1D08B16FE605A00000000C2019E
:104D000000000008020EB596B80E4D3453F9386D08
:104D1000E4D797CEA6B432EF0EEF4C412B12850AA2
:104D20006DE839940C88A26547746F3D60DCB1D0A2
:104D30008B16FE605A00000000C20100000008024D
:104D40000EB596B80E4D3453F9386DE4D797CEA60C
:104D5000B432EF0EEF4C412B12850A6DE839940CFA
:104D600088A26547746F3D60DCB1D08B16FE605A37
:104D700000000000C20100000008020EB596B80E47
:104D80004D3453F9386DE4D797CEA6B432EF0EEF19
:104D90004C412B12850A6DE839940C88A265477442
:104DA0006F3D60DCB1D08B16FE605A00000000C27F
:104DB0000100000008020EB596B80E4D3453F938C4
:104DC0006DE4D797CEA6B432EF0EEF4C412B12858F
:104DD0000A6DE839940C88A26547746F3D60DCB1B8
:104DE000D08B16FE605A00000000C20100000008CF
:104DF000020EB596B80E4D3453F9386DE4D797CE00
:104E0000A6B432EF0EEF4C412B12850A6DE83994AF
:104E10000C88A26547746F3D60DCB1D08B16FE60D4
:104E20005A00000000C20100000008020EB596B84A
:104E30000E4D3453F9386DE4D797CEA6B432EF0E49
:104E4000EF4C412B12850A6DE839940C88A2654716
:104E5000746F3D60DCB1D08B16FE605A000000001C
:104E6000C20100000008020EB596B80E4D3453F989
:104E7000386DE4D797CEA6B432EF0EEF4C412B122B
:104E8000850A6DE839940C88A26547746F3D60DC33
:104E9000B1D08B16FE605A00000000C20100000075
:104EA00008020EB596B80E4D3453F9386DE4D79715
:104EB000CEA6B432EF0EEF4C412B12850A6DE839C5
:104EC000940C88A26547746F3D60DCB1D08B16FEF0
:104ED000605A00000000C20100000008020EB596F2
:104EE000B80E4D3453F9386DE4D797CEA6B432EFEF
:104EF0000EEF4C412B12850A6DE839940C88A2659F
:104F000047746F3D60DCB1D08B16FE605A00000024
:104F100000C20100000008020EB596B80E4D3453D1
:104F2000F9386DE4D797CEA6B432EF0EEF4C412B93
:104F300012850A6DE839940C88A26547746F3D604C
:104F4000DCB1D08B16FE605A00000000C2010000E8
:104F50000008020EB596B80E4D3453F9386DE4D7FB
:104F600097CEA6B432EF0EEF4C412B12850A6DE8B6
:104F700039940C88A26547746F3D60DCB1D08B1604
:104F8000FE605A00000000C20100000008020EB5D9
:104F900096B80E4D3453F9386DE4D797CEA6B43297
:104FA000EF0EEF4C412B12850A6DE839940C88A264
:104FB0006547746F3D60DCB1D08B16FE605A00000F
:104FC0000000C20100000008020EB596B80E4D3474
:104FD00053F9386DE4D797CEA6B432EF0EEF4C41BB
:104FE0002B12850A6DE839940C88A26547746F3DD1
:104FF00060DCB1D08B16FE605A00000000C20100D8
:10500000000008020EB596B80E4D3453F9386DE421
:10501000D797CEA6B432EF0EEF4C412B12850A6D16
:10502000E839940C88A26547746F3D60DCB1D08B81
:1050300016FE605A00000000C20100000008020EC7
:10504000B596B80E4D3453F9386DE4D797CEA6B463
:1050500032EF0EEF4C412B12850A6DE839940C8823
:10506000A26547746F3D60DCB1D08B16FE605A00BC
:10507000000000C20100000008020EB596B80E4DF7
:105080003453F9386DE4D797CEA6B432EF0EEF4C17
:10509000412B12850A6DE839940C88A26547746F1C
:1050A0003D60DCB1D08B16FE605A00000000C201EA
:1050B00000000008020EB596B80E4D3453F9386D55
:1050C000E4D797CEA6B432EF0EEF4C412B12850AEF
:1050D0006DE839940C88A26547746F3D60DCB1D0EF
:1050E0008B16FE605A00000000C20100000008029A
:1050F0000EB596B80E4D3453F9386DE4D797CEA659
:10510000B432EF0EEF4C412B12850A6DE839940C46
:1051100088A26547746F3D60DCB1D08B16FE605A83
:1051200000000000C20100000008020EB596B80E93
:105130004D3453F9386DE4D797CEA6B432EF0EEF65
:105140004C412B12850A6DE839940C88A26547748E
:105150006F3D60DCB1D08B16FE605A00000000C2CB
:105160000100000008020EB596B80E4D3453F93810
:105170006DE4D797CEA6B432EF0EEF4C412B1285DB
:105180000A6DE839940C88A26547746F3D60DCB104
:10519000D08B16FE605A00000000C201000000081B
:1051A000020EB596B80E4D3453F9386DE4D797CE4C
:1051B000A6B432EF0EEF4C412B12850A6DE83994FC
:1051C0000C88A26547746F3D60DCB1D08B16FE6021
:1051D0005A00000000C20100000008020EB596B897
:1051E0000E4D3453F9386DE4D797CEA6B432EF0E96
:1051F000EF4C412B12850A6DE839940C88A2654763
:10520000746F3D60DCB1D08B16FE605A0000000068
:10521000C20100000008020EB596B80E4D3453F9D5
:10522000386DE4D797CEA6B432EF0EEF4C412B1277
:10523000850A6DE839940C88A26547746F3D60DC7F
:10524000B1D08B16FE605A00000000C201000000C1
:1052500008020EB596B80E4D3453F9386DE4D79761
:10526000CEA6B432EF0EEF4C412B12850A6DE83911
:10527000940C88A26547746F3D60DCB1D08B16FE3C
:10528000605A00000000C20100000008020EB5963E
:10529000B80E4D3453F9386DE4D797CEA6B432EF3B
:1052A0000EEF4C412B12850A6DE839940C88A265EB
:1052B00047746F3D60DCB1D08B16FE605A00000071
:1052C00000C20100000008020EB596B80E4D34531E
:1052D000F9386DE4D797CEA6B432EF0EEF4C412BE0
:1052E00012850A6DE839940C88A26547746F3D6099
:1052F000DCB1D08B16FE605A00000000C201000035
:105300000008020EB596B80E4D3453F9386DE4D747
:1053100097CEA6B432EF0EEF4C412B12850A6DE802
:1053200039940C88A26547746F3D60DCB1D08B1650
:10533000FE605A00000000C20100000008020EB525
:1053400096B80E4D3453F9386DE4D797CEA6B432E3
:10535000EF0EEF4C412B12850A6DE839940C88A2B0
:105360006547746F3D60DCB1D08B16FE605A00005B
:105370000000C20100000008020EB596B80E4D34C0
:1053800053F9386DE4D797CEA6B432EF0EEF4C4107
:105390002B12850A6DE839940C88A26547746F3D1D
:1053A00060DCB1D08B16FE605A00000000C2010024
:1053B000000008020EB596B80E4D3453F9386DE46E
:1053C000D797CEA6B432EF0EEF4C412B12850A6D63
:1053D000E839940C88A26547746F3D60DCB1D08BCE
:1053E00016FE605A00000000C20100000008020E14
:1053F000B596B80E4D3453F9386DE4D797CEA6B4B0
:1054000032EF0EEF4C412B12850A6DE839940C886F
:10541000A26547746F3D60DCB1D08B16FE605A0008
:10542000000000C20100000008020EB596B80E4D43
:105430003453F9386DE4D797CEA6B432EF0EEF4C63
:10544000412B12850A6DE839940C88A26547746F68
:105450003D60DCB1D08B16FE605A00000000C20136
:1054600000000008020EB596B80E4D3453F9386DA1
:10547000E4D797CEA6B432EF0EEF4C412B12850A3B
:105480006DE839940C88A26547746F3D60DCB1D03B
:105490008B16FE605A00000000C2010000000802E6
:1054A0000EB596B80E4D3453F9386DE4D797CEA6A5
:1054B000B432EF0EEF4C412B12850A6DE839940C93
:1054C00088A26547746F3D60DCB1D08B16FE605AD0
:1054D00000000000C20100000008020EB596B80EE0
:1054E0004D3453F9386DE4D797CEA6B432EF0EEFB2
:1054F0004C412B12850A6DE839940C88A2654774DB
:105500006F3D60DCB1D08B16FE605A00000000C217
:105510000100000008020EB596B80E4D3453F9385C
:105520006DE4D797CEA6B432EF0EEF4C412B128527
:105530000A6DE839940C88A26547746F3D60DCB150
:10554000D08B16FE605A00000000C2010000000867
:10555000020EB596B80E4D3453F9386DE4D797CE98
:10556000A6B432EF0EEF4C412B12850A6DE8399448
:105570000C88A26547746F3D60DCB1D08B16FE606D
:105580005A00000000C20100000008020EB596B8E3
:105590000E4D3453F9386DE4D797CEA6B432EF0EE2
:1055A000EF4C412B12850A6DE839940C88A26547AF
:1055B000746F3D60DCB1D08B16FE605A00000000B5
:1055C000C20100000008020EB596B80E4D3453F922
:1055D000386DE4D797CEA6B432EF0EEF4C412B12C4
:1055E000850A6DE839940C88A26547746F3D60DCCC
:1055F000B1D08B16FE605A00000000C2010000000E
:1056000008020EB596B80E4D3453F9386DE4D797AD
:10561000CEA6B432EF0EEF4C412B12850A6DE8395D
:10562000940C88A26547746F3D60DCB1D08B16FE88
:10563000605A00000000C20100000008020EB5968A
:10564000B80E4D3453F9386DE4D797CEA6B432EF87
:105650000EEF4C412B12850A6DE839940C88A26537
:1056600047746F3D60DCB1D08B16FE605A000000BD
:1056700000C20100000008020EB596B80E4D34536A
:10568000F9386DE4D797CEA6B432EF0EEF4C412B2C
:1056900012850A6DE839940C88A26547746F3D60E5
:1056A000DCB1D08B16FE605A00000000C201000081
:1056B0000008020EB596B80E4D3453F9386DE4D794
:1056C00097CEA6B432EF0EEF4C412B12850A6DE84F
:1056D00039940C88A26547746F3D60DCB1D08B169D
:1056E000FE605A00000000C20100000008020EB572
:1056F00096B80E4D3453F9386DE4D797CEA6B43230
:10570000EF0EEF4C412B12850A6DE839940C88A2FC
:105710006547746F3D60DCB1D08B16FE605A0000A7
:105720000000C20100000008020EB596B80E4D340C
:1057300053F9386DE4D797CEA6B432EF0EEF4C4153
:105740002B12850A6DE839940C88A26547746F3D69
:1057500060DCB1D08B16FE605A00000000C2010070
:10576000000008020EB596B80E4D3453F9386DE4BA
:10577000D797CEA6B432EF0EEF4C412B12850A6DAF
:10578000E839940C88A26547746F3D60DCB1D08B1A
:1057900016FE605A00000000C20100000008020E60
:1057A000B596B80E4D3453F9386DE4D797CEA6B4FC
:1057B00032EF0EEF4C412B12850A6DE839940C88BC
:1057C000A26547746F3D60DCB1D08B16FE605A0055
:1057D000000000C20100000008020EB596B80E4D90
:1057E0003453F9386DE4D797CEA6B432EF0EEF4CB0
:1057F000412B12850A6DE839940C88A26547746FB5
:105800003D60DCB1D08B16FE605A00000000C20182
:1058100000000008020EB596B80E4D3453F9386DED
:10582000E4D797CEA6B432EF0EEF4C412B12850A87
:105830006DE839940C88A26547746F3D60DCB1D087
:105840008B16FE605A00000000C201000000080232
:105850000EB596B80E4D3453F9386DE4D797CEA6F1
:10586000B432EF0EEF4C412B12850A6DE839940CDF
:1058700088A26547746F3D60DCB1D08B16FE605A1C
:1058800000000000C20100000008020EB596B80E2C
:105890004D3453F9386DE4D797CEA6B432EF0EEFFE
:1058A0004C412B12850A6DE839940C88A265477427
:1058B0006F3D60DCB1D08B16FE605A00000000C264
:1058C0000100000008020EB596B80E4D3453F938A9
:1058D0006DE4D797CEA6B432EF0EEF4C412B128574
:1058E0000A6DE839940C88A26547746F3D60DCB19D
:1058F000D08B16FE605A00000000C20100000008B4
:10590000020EB596B80E4D3453F9386DE4D797CEE4
:10591000A6B432EF0EEF4C412B12850A6DE8399494
:105920000C88A26547746F3D60DCB1D08B16FE60B9
:105930005A00000000C20100000008020EB596B82F
:105940000E4D3453F9386DE4D797CEA6B432EF0E2E
:10595000EF4C412B12850A6DE839940C88A26547FB
:10596000746F3D60DCB1D08B16FE605A0000000001
:10597000C20100000008020EB596B80E4D3453F96E
:10598000386DE4D797CEA6B432EF0EEF4C412B1210
:10599000850A6DE839940C88A26547746F3D60DC18
:1059A000B1D08B16FE605A00000000C2010000005A
:1059B00008020EB596B80E4D3453F9386DE4D797FA
:1059C000CEA6B432EF0EEF4C412B12850A6DE839AA
:1059D000940C88A26547746F3D60DCB1D08B16FED5
:1059E000605A00000000C20100000008020EB596D7
:1059F000B80E4D3453F9386DE4D797CEA6B432EFD4
:105A00000EEF4C412B12850A6DE839940C88A26583
:105A100047746F3D60DCB1D08B16FE605A00000009
:105A200000C20100000008020EB596B80E4D3453B6
:105A3000F9386DE4D797CEA6B432EF0EEF4C412B78
:105A400012850A6DE839940C88A26547746F3D6031
:105A5000DCB1D08B16FE605A00000000C2010000CD
:105A60000008020EB596B80E4D3453F9386DE4D7E0
:105A700097CEA6B432EF0EEF4C412B12850A6DE89B
:105A800039940C88A26547746F3D60DCB1D08B16E9
:105A9000FE605A00000000C20100000008020EB5BE
:105AA00096B80E4D3453F9386DE4D797CEA6B4327C
:105AB000EF0EEF4C412B12850A6DE839940C88A249
:105AC0006547746F3D60DCB1D08B16FE605A0000F4
:105AD0000000C20100000008020EB596B80E4D3459
