:020000040000FA
:06000000CDEF16F0120026
:06080000CDEF16F012001E
:06080800A0EF11F0120048
:0608180048EF11F0120090
:06082A000300D72D0000C1
:100830009B00000015000000D02D0000CB00000040
:1008400007000000CE2D0000D800000002000000CC
:1008500064EC09F0FB0EDBCFF3FFDB06F35000097D
:100860000AE0B2EC09F0FA0E1DEC0AF0F3E1151CF7
:10087000F1E1010E01D0000E93EF09F064EC09F0F4
:100880003B0EE12402E3E168E652E16E010EDB6A11
:10089000020EDB6AF90EDBCFF6FFFA0EDBCFF7FFB5
:1008A000FB0EDBCFF8FF0800F550DF6EDF5002E1F2
:1008B000B7EF08F0250EDF5C02E0AAEF08F0030EA8
:1008C000DB6A040EDB6A050EDB6A060EDB6A070EC6
:1008D000DB6ACCEC08F02D0EDF5C0CE02B0EDF5C4D
:1008E00009E0200EDF5C06E0230EDF5C03E0300E43
:1008F000DF5C1AE1DF50300A14E0130A0FE0030A4C
:100900000AE00B0A05E0060AE4E1030EDB80E1D70A
:10091000030EDB82DED7030EDB84DBD7030EDB8620
:10092000D8D7030EDB88D5D72A0EDF5C1BE1C8ECD5
:1009300008F016EC09F010E0030EDB800868096887
:10094000130EDBCF0DF0140EDBCF0EF004EC14F021
:10095000040E06C0DBFF03D0130EFFEC08F0CCEC56
:1009600008F00BD0090EDB6A6DEC09F003E0E1EC56
:1009700009F0FAD7090EFFEC08F0030EDBB0DB98A4
:100980002E0EDF5C1BE1CCEC08F02A0EDF5C0BE1E5
:10099000C8EC08F016EC09F003E1130E51EC09F075
:1009A000CCEC08F00BD0090EDB6A6DEC09F003E02B
:1009B000E1EC09F0FAD7090E51EC09F0680EDF5CA2
:1009C00007E1CCEC08F0680EDF5C1DE1030E18D0E7
:1009D000740EDF5C17E07A0EDF5C14E0480EDF5C1B
:1009E00006E0540EDF5C03E05A0EDF5C02E1020E0B
:1009F00007D06C0EDF5C03E06A0EDF5C04E1010EE1
:100A0000A4EC09F0C9DBDF506E0A01E17FD31E0AB6
:100A100001E192D1200A01E18FD13F0A01E149D1E0
:100A20001A0A01E146D10D0A01E143D1200A01E190
:100A300040D13A0A01E13DD1200A01E13AD1260A2A
:100A400001E135D10D0A01E132D11A0A01E1D9D013
:100A5000200A4AE0300A1FE0460A0EE0250A01E0BB
:100A600083D3D950F90FE96EFF0EDA20EA6E010E3A
:100A7000EE5E000EEE5AEE5AB2EC09F0250EE66E6E
:100A800095DB03E1151C01E169D3AEEC09F001E24D
:100A90006BD3DB2A69D3080EDB6A040EDB50010836
:100AA00006E2040EDB0476EC09F0DB508BDB080E6B
:100AB000DB5009E0030EDB50010B05E172DB01E0C6
:100AC0004DD3080EDB6A64DBEFCFDFFF26EC0AF0C4
:100AD00003E1151C01E142D3AEEC09F001E3DB2A8E
:100AE00060DB01E141D33AD3070EDB5002080FE18E
:100AF000F2EC09F0030EB9EC09F00E0EEECFDBFFBD
:100B00000F0EEECFDBFF100EEECFDBFF20D0F70E87
:100B1000DBCF17F0F80EDBCF18F0020E175E000ED9
:100B2000185AF70E17C0DBFFF80E18C0DBFF17C00E
:100B3000E9FF18C0EAFFA9EC09F0166A0E0E14C00E
:100B4000DBFF0F0E15C0DBFF100E16C0DBFF0E0E15
:100B5000DBCFE6FF0F0EDBCFE6FF100EDBCFE6FFAD
:100B60000EEC16F0E552E552E552130E07C0DBFF1E
:100B7000140E08C0DBFF060EDB5005E0130EEDEC93
:100B800009F001E26ADB11EC0AF002E2130E37DB36
:100B9000D4EC09F006E0040EEDEC09F002E2050EDB
:100BA0002EDB030EDBB005D0FCDA01E0D7D2080E55
:100BB000DB6A090EDB6A0E0EDBCFF6FF0F0EDBCF12
:100BC000F7FF100EDBCFF8FF0800F550DF6EDF50A7
:100BD00014E017EC0AF011E226EC0AF003E1151C10
:100BE00001E1BCD2BBDB01E3DB2A090EDB2AD950D1
:100BF0000E0FE96E000ECBDBE7D7D3DA01E1B4D2FA
:100C0000ADD2C6DA110EEECFDBFF120EEDCFDBFF59
:100C1000110EDBCFE6FF120EDBCFE6FF00EC16F085
:100C2000E552E552130EF3CFDBFF140EF4CFDBFFDA
:100C3000060EDB5004E0130ED0DB01E20EDB11ECFC
:100C40000AF002E2130EDBDAAFDB05E0040EC5DBCF
:100C500002E2050ED4DA030EDBB005D0A2DA01E021
:100C60007DD2080EDB6A090EDB6A110EDBCFE9FFCD
:100C7000120EDBCFEAFFEFCFDFFFDF5014E0D7DB50
:100C800012E2E4DB03E1151C01E168D267DB01E35A
:100C9000DB2A090EDB2A110EDB2ADBCFE9FF120E5D
:100CA000E8E3DB2AE6D77DDA01E15ED257D2030E14
:100CB000DB8E070EDB0410E195DB040E5ADB0A0E17
:100CC000EECFDBFF0B0EEECFDBFF0C0EEECFDBFF2C
:100CD0000D0EEECFDBFF6CD0070EDB5003082CE1CE
:100CE000030EDBAE0DD0B2DA020E76DAEFCF14F0DF
:100CF000156A166A176A14AE39D01568166835D0A9
:100D0000F70EDBCF15F0F80EDBCF16F0020E155EF6
:100D1000000E165AF70E15C0DBFFF80E16C0DBFFEB
:100D200015C0E9FF16C0EAFFEFCF14F00A0E14C099
:100D3000DBFF0B0EDB6A38D0070EDB50020809E13F
:100D4000030EDBAE04D059DB16AE10D00ED055DB4F
:100D50000DD0030EDBAE12D079DA020E3DDAF9DAED
:100D6000166A176A15AE02D016681768E2DA0C0E1A
:100D700016C0DBFF0D0E17C0DBFF1AD0F70EDBCF5E
:100D800016F0F80EDBCF17F0020E165E000E175AA3
:100D9000F70E16C0DBFFF80E17C0DBFF16C0E9FF29
:100DA00017C0EAFFD6DAC5DA0C0EDB6A0D0EDB6A75
:100DB000060EDB5005E1010EF36E050EF3CFDBFFEF
:100DC000150EDB6A160EDB6AD950370F146E000E53
:100DD000DA20156E390E14C0DBFF3A0E15C0DBFFAA
:100DE000380EDB6A080EDB6A0A0EAEDADF50780ACC
:100DF00012E0200A10E0280A0CE0200A0AE03F0A6C
:100E000006E00D0A02E0200A08E1020E05D0080EF5
:100E100003D0080EDF26100E97DA030EDBBE02D0D9
:100E2000DB92DB94DB50800B24E08ADAD890030E4F
:100E3000EB50000A08E6000EEE5C000EEE58000EC5
:100E4000EE58000EEE5815E213DA0B680C680D68C8
:100E50000E68C8EC15F00A0E02C0DBFF0B0E03C0D3
:100E6000DBFF0C0E04C0DBFF0D0E05C0DBFF2D0EFB
:100E700008D0030EDBA202D02B0E03D0DBA408D0D7
:100E8000200EF36E170EF3CFDBFF150EDB2A02D018
:100E9000170EDB6A050EDB5003E1B7D901E189D0FB
:100EA000B20E146E2D0E156E000E166E070EDBCFF1
:100EB00017F0186A196A1A6A17C00BF018C00CF0FC
:100EC00019C00DF01AC00EF0D3D933EC16F014503F
:100ED0000224F36E15500320F46E16500420F86EB1
:100EE000F4CFF7FFF3CFF6FF0800090EF5CFDBFFD5
:100EF000580EDF5C0FE1610EF36E090E7BD90AE339
:100F0000200E146E090EDBCFE7FF1450E75E090ECA
:100F1000E7CFDBFF070EDBCF14F0156A166A176AFE
:100F20000FDA14C00BF015C00CF016C00DF017C08E
:100F30000EF0EECF06F0EECF07F0EECF08F0EFCFD9
:100F400009F033EC16F009C0EDFF08C0EDFF07C053
:100F5000EDFF06C0EFFF390EDBCFE9FFDB063A0EEF
:100F6000DBCFEAFF01E2DB06090EDBCFEFFF150E58
:100F7000DB2A4BD995E1030EDBA61DD06F0EDF5C9B
:100F800006E1C1D918E3150EDB285BDA14D0780E20
:100F9000DF5C09E0580EDF5C06E0620EDF5C03E018
:100FA000420EDF5C08E1020EF36E160EF3CFDBFF9C
:100FB00002D0150EDB6A030EDB50100B0EE0040EA0
:100FC000DBCF14F0050EDB50D880145406E2060E79
:100FD000DB5003E1040EDB5034DA95D90AE2050E4A
:100FE000DBCFE7FF150EDB50E75E050EE7CFDBFF3B
:100FF00002D0050EDB6A040EDBCF14F0160E45D9C5
:10100000D880145414E2160EDBCFE6FF150EDBCFAA
:10101000E6FF040EDBCFE6FF050EDB50E552E75C92
:10102000E552D880E754E552D880E7545FD9030EE3
:10103000DB50010B0BE1080EDB5008E0B2D801E0F9
:101040008DD0080EDB50BED8080EDB6A170EDB50C1
:1010500007E088D9170EF1D903E1151C01E17ED014
:10106000160EDB5016E07ED9300EE66E9FD802E1F8
:10107000151C74E077D9DFCFE6FF86EC15F0E5525A
:10108000E552E552F4CF15F00001F31C02E1151C06
:1010900065E0050EDBCF14F0160EDB50D88014543B
:1010A00009E2050EDBCFE7FF160EDB50E75E050E0B
:1010B000E7CFDBFF300EE66E050ECBD94FE1390EE0
:1010C000DB2ADBCFE9FF3A0E01E3DB2ADBCFEAFFC5
:1010D000090EEFCFDBFFDB500EE044D9090EADD98E
:1010E00002E1151C3BE0390EDB2ADBCFE9FF3A0EAB
:1010F000EDE3DB2AEBD755D831E1160EDBCFE6FF67
:10110000080EC3D8E552E7245DD82ED0070EDB5079
:10111000030A1CE0010A14E0030A07E07BD9DBCFD5
:10112000EEFF020EDBCFEDFF1FD0F5D8196A17AE28
:1011300002D0186819682CD8BCD819C0EEFF14D09A
:10114000EAD817BE186824D8B4D80ED063D9DBCF3C
:10115000EFFF0AD07BD905E1151C03E1F368F468C1
:1011600010D0FCD801E3DB2A79D953EF04F0010E4B
:10117000DBCF14F0020EDBCF15F014C0F3FF15C067
:10118000F4FF3B0EE15C02E2E16AE552E16ECBD096
:1011900029D9020EB9EF09F061D90800F550DF6EC8
:1011A0001200200EE66E080E29EF0AF086EC15F00C
:1011B000E552E552E552F3CF14F0F4CF15F00001FB
:1011C000F31C1200146E156AD950010F4DD914503A
:1011D000EE261550ED221200185E000E195AF70E79
:1011E00018C0DBFFF80E19C0DBFF18C0E9FF19C0FB
:1011F000EAFF1200DBCFF4FFF350F45C1200DB5087
:10120000E76E040EE7CFDBFF12000A0EDBCF14F00F
:101210000B0EDBCF15F00C0EDBCF16F00D0EDBCF77
:1012200017F014501510161017101200130EEECFF1
:10123000DBFF140EEDCFDBFF130EDBCF14F0140E2B
:10124000DBCF15F00001800E15141200F70EDBCF76
:1012500018F0F80EDBCF19F01200050EDB50E66E29
:10126000D950130F01D9E552E750EE6EED6A120026
:101270000A0EDBCF06F00B0EDBCF07F00C0EDBCF38
:1012800008F00D0EDBCF09F01200DBCFE6FF150EE4
:10129000DBCFE6FF050EDB50E552E724E552E724FD
:1012A0001200DB50CED8010EF36E060EF3CFDBFF3B
:1012B0001200EE50EFCFEAFFE96E16C0EEFF17C046
:1012C000EEFF18C0EEFF1200D9CFE6FFDACFE6FF3F
:1012D000E1CFD9FFE2CFDAFF1200DFCFE6FFE66A07
:1012E000ADEC16F0E552E552F3501200E76E080E31
:1012F000E7CFDBFF1200EECF14F0EECF15F0EFCF0B
:1013000016F0176A1200050EDBCF14F0150EDB5035
:10131000D88014541200010EDBCF16F0020EDBCF82
:1013200017F0186A1200E552E5CFDAFFE7CFD9FFD0
:1013300012000A0E14C0DBFF0B0E15C0DBFF1200FB
:10134000D9500A0F34EF0AF0F36E070EF3CFDBFF2C
:101350001200EECF14F0EFCF15F01200010EDB2AD1
:10136000020E1200FC0EDBCFE6FFFD0EDBCFE6FF28
:101370001200145E000E155AF70E14C0DBFFF80EB3
:1013800015C0DBFF14C0E9FF15C0EAFF1200DA2028
:10139000EA6EEF2AEECFF6FF000EEF22EECFF7FF58
:1013A000EF22EECFF8FF1200040EDBCFE6FF130EA4
:1013B000DB50E552E75C9ADFDB5004DF060EDB50C2
:1013C0001200090EDB500A0DF350DF24D00FE76E38
:1013D000090EE7CFDBFFCCEF08F0DB50F36E050E14
:1013E000FAEF08F0F70EDBCF14F0F80EDBCF15F0B4
:1013F0001200DFCFE6FFD6EF08F028DF030EECDEA9
:101400007BEF09F028EC04F0E552E552E552E55295
:1014100000091200BDDEEE50EFCFEAFFE96E010ECB
:101420001200130EDB50F36E040EFAEF08F0040EF8
:10143000DB50F36E090EFAEF08F0DBCFE6FFD6EFD4
:1014400008F0E76E050EE7CFDBFF12008BDFF9EF48
:1014500009F0DBCFE6FF86DF02EF0AF0D950F90F83
:10146000E96EFF0EC7EF09F0E96E000EDA20EA6EB2
:02147000120068
:0E1472000001AE51AF1117E10001CB51CC11BA
:1014800013E00001815108E1DC0EE66E2C0EE66EE1
:1014900051EC0DF0E552E552CBC0ACF0CCC0ADF054
:1014A0000001CB6BCC6B49D00001AC51AD1145E0D4
:1014B000ACC0E9FFADC0EAFFEF50F00BE842E842F4
:1014C000E842E842146E000E145C0CE3ACC0E9FF85
:1014D000ADC0EAFFEF50F00BE842E842E842E842D4
:1014E00004080CE2C60EE66E2C0EE66EF0EC11F06F
:1014F000E552E5520001AC6BAD6B1FD0ACC0E9FF0B
:10150000ADC0EAFFEF50F00BE842E842E842E842A3
:10151000F66EF76AD890F636F736C30EF6262D0E1D
:10152000F7220900F5CF14F00800F5CF15F004D02C
:1015300015C0FAFF1450F96EFBDF1200D9CFE6FF99
:10154000E1CFD9FFFD0EDB500001AC27FE0EDB50D2
:101550000001AD23E552E7CFD9FF1200D9CFE6FF56
:10156000E1CFD9FFE652ACC0E9FFADC0EAFFEECF54
:1015700014F0EECF15F0EECF16F0EFCF17F000011C
:10158000AE510001165C0001AF51000117580AE28C
:101590000001AE6BAF6B040EE66EE66ACFDFE5527C
:1015A000E552AAD00001AE51AF1128E1BAC0BDF09A
:1015B000BBC0BEF0BCC0BFF0ACC0E9FFADC0EAFF2D
:1015C000EF500F0B080DF3CFC0F0ACC0E9FFADC07A
:1015D000EAFFEE52EF50F00BE842E842E842E84200
:1015E000080DF3CFC1F0ACC0E9FFADC0EAFFEE5289
:1015F000EF500F0B080DF3CFC2F07AD0DF6ADFCFC8
:1016000014F0030EE76E1418E8AE02D0E73402D0EF
:10161000E750145C6DE2ACC0E9FFADC0EAFF020E1A
:10162000E926000EEA22EECF1FF0EFCF20F0216A6C
:10163000AEC01CF0AFC01DF01E6ADFCFE9FFEA6A42
:10164000E9BEEA68C00EE926000EEA22EFCF1BF0E1
:10165000DFCFE9FFEA6AE9BEEA68BD0EE926000EBF
:10166000EA22EF501B5C186E196A1A6A18AE02D093
:1016700019681A6818C007F019C008F01AC009F0F4
:101680001CC00CF01DC00DF01EC00EF031EC14F0AB
:1016900004C015F005C016F006C017F015C007F01D
:1016A00016C008F017C009F01FC00CF020C00DF0E4
:1016B00021C00EF0D7EC13F007C014F0DFCFE9FF24
:1016C000EA6AE9BEEA68BD0EE926000EEA22EF509A
:1016D0001424E66EDFCFE9FFEA6AE9BEEA68BA0ED3
:1016E000E926000EEA22E552E750EF6EDF2A87D79F
:1016F0000001AE2B000EAF23E552E552E7CFD9FF34
:101700001200BD0EE66E2C0EE66EF0EC11F0E55206
:10171000E5520001AC6BAD6B1200D9CFE6FFE1CF13
:10172000D9FFFD0EDBCF16F0FE0EDBCF17F016C093
:1017300017F0166AFC0EDB5000011610146E17C06D
:1017400015F014C0F3FF15C0F4FF00D0E552E7CF49
:10175000D9FF1200ACC0E9FFADC0EAFFEE52EF5076
:10176000E66EACC0E9FFADC0EAFFEF500F0BE8B684
:10177000F009166E176A16BE176816C0E6FF17C086
:10178000E6FFCBDFE552E552E552F3CF14F0F4CF9C
:1017900015F0146C151E000E152214C0E6FF15C0BE
:1017A000E6FFCCDEE552E5521200D9CFE6FFE1CFED
:1017B000D9FFE652ACC0E9FFADC0EAFF020EE92650
:1017C000000EEA22EF2AEFCF14F0ACC0E9FFADC063
:1017D000EAFF030EE926000EEA22EF50145C11E343
:1017E000ACC0E9FFADC0EAFF020EE926000EEA2216
:1017F000EF6A040EE66EE66AA1DEE552E5522BD0F2
:101800002AD0ACC0E9FFADC0EAFFEE52EF50E66E61
:10181000ACC0E9FFADC0EAFFEF500F0BE8B6F0092E
:10182000166E176A16BE176816C0E6FF17C0E6FFE9
:1018300074DFE552E552E552F3CF14F0F4CF15F022
:10184000146C151E000E152214C0E6FF15C0E6FF2D
:1018500075DEE552E552E552E552E7CFD9FF1200B9
:10186000040120511F0B010801E060D00401205148
:10187000600BE842E842E842E842E842010801E041
:1018800055D00401245104E00401240501E04ED0A8
:1018900004012151230A48E0010A40E0030A30E034
:1018A000010A25E0240A22E0070A1FE0010A1CE0E1
:1018B000030A11E0010A01E038D00001030EC46FF1
:1018C0000001930EC56F000EC66F0001D393000197
:1018D000080EC96F2BD00001030EC46F0001930ED8
:1018E000C76F000EC86F22D021D020D01FD00001BA
:1018F000030EC46F0001880EC76F000EC86F16D0AC
:101900000001030EC46F0001880EC56F000EC66F84
:101910000001D3930001070EC96F08D00001030E28
:10192000C46F22C48FF002D001D000D01200000199
:10193000886BC20E896F010E8A6F8B6B00018C6BF6
:1019400000018D6B0001080E8E6F0001816B00019C
:10195000806B1A0E726E1E0E736E0401000E166FEF
:10196000050E176F0401400E146F0401400E196F2D
:101970000401080E1A6F050E1B6F0401880E186F04
:101980000401480E1E6F050E1F6F0401400E1C6FF0
:101990001200D9CFE6FFE1CFD9FF0001806B04012F
:1019A00018BF39D0FC0EDBCF14F004011951D880D8
:1019B000145403E2FC0E19C4DBFF0001806BFC0E23
:1019C000DB500001805D1CE200018051EA6A080FD3
:1019D000E96E050EEA22EF50E66E00018051E76ED7
:1019E000FD0EDBCFE9FFFE0EDBCFEAFFE750E92675
:1019F000000EEA22E552E750EF6E0001802BDFD7A0
:101A00000401400E196F400E040118170401187DDF
:101A1000880E040118130001805100D0E552E7CF71
:101A2000D9FF1200D9CFE6FFE1CFD9FFE65200017E
:101A3000815101E031D0DF6ADF2ADF50146E156A70
:101A4000145002E1010E151801E10BD0FD0EDBCFA1
:101A5000E9FFDB2AFE0EDBCFEAFF01E3DB2AEF50D2
:101A6000EBE1DF50146E156AD950FD0FE96EFF0EE1
:101A7000DA20EA6E1450EE5E1550ED5ADF06FD0EC8
:101A8000DBCF82F0FE0EDBCF83F0DFCF86F00001EC
:101A9000876B0001010E816FE552E552E7CFD9FF58
:101AA0001200D9CFE6FFE1CFD9FFE6520001815104
:101AB00001E033D0DF6ADF2ADF50146E156AFF0EB3
:101AC000141801E1155001E10CD0FD0EDBCFF6FF3B
:101AD000DB2AFE0EDBCFF7FF01E3DB2A0800F5501F
:101AE000EAE1DF50146E156AD950FD0FE96EFF0E62
:101AF000DA20EA6E1450EE5E1550ED5ADF06FD0E48
:101B0000DBCF82F0FE0EDBCF83F0DFCF86F000016B
:101B1000010E876F0001010E816FE552E552E7CF9C
:101B2000D9FF1200D9CFE6FFE1CFD9FFE652040179
:101B30001CBF7DD0030E0001815D02E10001816BBD
:101B40000001815101E173D0020E0001815D06E1C7
:101B500004011D6B0001030E816F61D0000181053E
:101B60005EE1400E146E156A00018651145C000E91
:101B7000155803E2400EDF6E02D086C0DFFFDFCFD4
:101B80001DF4DF500001865D0001866F0001480EE4
:101B9000846F050E856F0001870518E1DF5015E0A1
:101BA00082C0F6FF83C0F7FF0800F55084C0E9FF4C
:101BB00085C0EAFFEF6E0001842B000E8523000133
:101BC000822B000E8323DF06E9D716D0DF5014E006
:101BD00082C0E9FF83C0EAFFEF5084C0E9FF85C0FF
:101BE000EAFFEF6E0001842B000E85230001822B9B
:101BF000000E8323DF06EAD70001865110E10401BD
:101C00001D51146E156A400E141801E1155004E1BF
:101C10000001020E816F03D00001030E816F400EA0
:101C200004011C1704011C7D880E04011C13E552DD
:081C3000E552E7CFD9FF1200D5
:081C38006C5002E0000E01D027
:101C4000010E00090BE0040100513C0BE842E842A0
:101C50000D0802E10CD801D042D808D06C5002E047
:101C6000000E01D0010E040901E04BD81200D9CFBB
:101C7000E6FFE1CFD9FFE6520001C36B0001C46B60
:101C80000001C96BCA6BB9EC0FF0DF6ADF50146E4C
:101C9000156A010E145C000E15581BE20001C451B8
:101CA00001E017D0F76ADF34FE0BF736F66EBF0E91
:101CB000F626290EF7220900F5CF14F00800F5CF1B
:101CC00015F004D015C0FAFF1450F96EFBDFDF2ABF
:101CD000DDD7F0D8E552E552E7CFD9FF1200020E6A
:101CE0000001C35D0CE1A4D8040100BD04D00401CF
:101CF000C80E006F03D00401880E006F01D029D9EF
:101D00001200040E0001D25D0CE122C46EFF6E5081
:101D1000000804E20001050ED26F03D00001030E9B
:101D2000D26F0001C3050CE10DD8040104BD04D03D
:101D30000401C80E046F03D00401880E046F01D0A3
:101D400008D91200D9CFE6FFE1CFD9FF020EE12674
:101D50000001080EC95D000ECA5905E2C9C0DEFFC8
:101D6000CAC0DDFF03D0080EDE6EDD6A04010493F5
:101D700004010491010EDB5004010413DFCF05F4CC
:101D8000000EDB500001C95F010EDB500001CA5B91
:101D90000001280EC76F040EC86F0001D3A320D026
:101DA000D9CFE9FFDACFEAFFEE50ED1018E0C5C059
:101DB000F6FFC6C0F7FF0800F550C7C0E9FFC8C06E
:101DC000EAFFEF6E0001C72B000EC8230001C52BF0
:101DD000000EC623DF06010E01E2DB06E1D71ED0AE
:101DE000D9CFE9FFDACFEAFFEE50ED1017E0C5C01A
:101DF000E9FFC6C0EAFFEF50C7C0E9FFC8C0EAFF6D
:101E0000EF6E0001C72B000EC8230001C52B000E8A
:101E1000C623DF06010E01E2DB06E2D7020EE15C1B
:101E200002E2E16AE552E16EE552E7CFD9FF120026
:101E3000D9CFE6FFE1CFD9FF020EE126030E040160
:101E40000015E76E010EE7CFDBFF01C4DFFFDE50B8
:101E50000001C927DD500001CA230001280EC56F0B
:101E6000040EC66FD9CFE9FFDACFEAFFEE50ED10CE
:101E700017E0C5C0E9FFC6C0EAFFEF50C7C0E9FFE1
:101E8000C8C0EAFFEF6E0001C72B000EC823000197
:101E9000C52B000EC623DF06010E01E2DB06E2D7EA
:101EA000020EE15C02E2E16AE552E16EE552E7CF43
:101EB000D9FF12000001C4510FE10401080E016FA7
:101EC0000401200E026F040E036F0401840E006FE4
:101ED0000401840E046F3BD0040120AF25D0000123
:101EE000C9510401265D0001CA510401275904E2C9
:101EF00026C4C9F027C4CAF025DF0001010EC36F54
:101F00000401080E016F0401200E026F040E036F1E
:101F10000401800E006F0401280E066F040E076F87
:101F20000401C80E046F13D00001020EC36F040138
:101F3000056B0401C80E046F0401080E016F040153
:101F4000280E026F040E036F0401C80E006F6D9817
:101F500012000001C36B0401080E016F0401200E82
:101F6000026F040E036F0401880E006F0401046BFE
:021F700012005D
:0E1F720004012051600BE842E842E842E842D8
:101F8000E842000901E058D004012151070A53E05A
:101F90000B0A51E0070A42E0010A2CE00B0A28E094
:101FA000020A26E0030A22E0080A12E0010A0EE013
:101FB0000F0A0AE0030A01E03ED00001010EC46FDF
:101FC0000001040ED26F38D038D836D093D834D030
:101FD0000001010EC46F0001D40EC56F000EC66F64
:101FE0000001D3930001010EC96F26D0ABD824D0D5
:101FF000F9D822D00001010EC46F04012451000160
:10200000C56FC66BD50E0001C527000E0001C623A3
:102010000001D3930001010EC96F0ED00001010E23
:10202000C46F04012451EA6AD50FE96E000EEA225A
:1020300022C4EFFF01D000D01200800E0401205D09
:1020400058E104012351030A34E0010A10E0030AB5
:1020500001E04DD00001010EC46F0001F40EC56F08
:10206000280EC66F120E0001C96FCA6B40D0000166
:10207000010EC46F04012251F66EF76AD890F6364D
:10208000F736B50EF626290EF7220900F5CFC5F072
:102090000A00F5CFC6F0020E0001F76AC525F66EFC
:1020A000C651F7220900F5CFC9F00A00F5CFCAF0F2
:1020B0001ED00001010EC46F04012251F66EF76AB2
:1020C000D890F636F736B90EF626290EF722090013
:1020D000F5CFC5F00A00F5CFC6F0C5C0F6FFC6C003
:1020E000F7FF0800F5500001C96FCA6B00D000016E
:1020F000D38312000001010EC46F0F0EE66E710E45
:10210000E66E0F0EE66E19EC13F0E552E552E5525D
:10211000010EE66ED50EE66E000EE66E19EC13F0BB
:10212000E552E552E55222C4D4F00401225104E103
:102130000001050ED26F05D00001060ED26F97EC9C
:102140000CF012000401286B0401296B04012051DA
:102150001F0B020A14E0030A0EE0010A01E034D06A
:102160000001010EC46F040128810001D3A102D037
:102170000401288329D00001010EC46F25D000017D
:10218000010EC46F040124510F0B080DF350156AA2
:10219000000F146E040E152204012451800B01E07F
:1021A000010E040DF35000011424C76F000E15201A
:1021B000C86FC7C0E9FFC8C0EAFFEF50040B03E0D7
:1021C0000401010E286F00D00001C4050AE10001DE
:1021D000280EC56F040EC66F0001D3930001020ED6
:1021E000C96F12000401220511E1040120511F0BE7
:1021F00000090CE10001010EC46F030E0401215D12
:1022000003E10001D38102D00001D39104012251E6
:102210003EE1040120511F0B020839E10401245161
:102220000F0B000934E00001010EC46F04012451BA
:102230000F0B080DF350156A000F146E040E1522D3
:1022400004012451800B01E0010E040DF350000144
:102250001424C76F000E1520C86F030E0401215D02
:1022600007E1840EC7C0E9FFC8C0EAFFEF6E0FD0D8
:10227000040124AF06D0C7C0E9FFC8C0EAFFEF6A77
:1022800006D0880EC7C0E9FFC8C0EAFFEF6E120093
:10229000D8CFE4FFE0CFE4FFE46EDACFE4FFE2CF93
:1022A000DAFFE9CFE4FFEACFE4FFF6CFE4FFF7CFB0
:1022B000E4FFF5CFE4FFF3CFE4FFF4CFE4FFFACF80
:1022C000E4FF00EE00F0140EE80403E3EECFE4FFB9
:1022D000FBD700EE14F00E0EE80403E3EECFE4FFAC
:1022E000FBD7E6529EA203D09E9239EC0AF0E5524B
:1022F00000EE21F00E0EE80403E3E5CFEDFFFBD77F
:1023000000EE13F0140EE80403E3E5CFEDFFFBD776
:10231000E5CFFAFFE5CFF4FFE5CFF3FFE5CFF5FF1B
:10232000E5CFF7FFE5CFF6FFE5CFEAFFE5CFE9FF21
:10233000E5CFDAFFE550E5CFE0FFE5CFD8FF1000AD
:10234000DACFE4FFE2CFDAFFE652E552E5CFDAFF7B
:102350001100D9CFE6FFE1CFD9FF020EE12600013F
:10236000BC6BBCC0BBF0BCC0BAF0896A92680F0EEF
:10237000C16EC290070EB46E8A68936AFC0E8B160B
:10238000FC0E94169484CA82CA80CA9CCA9ACA88CF
:10239000CA96FA0ECB6ED08E9D829F92F28EF28CF0
:1023A000CA84020EE15C02E2E16AE552E16EE552A6
:1023B000E7CFD9FF1200D9CFE6FFE1CFD9FFE65230
:1023C00024D8060E0001D25D03E36D50020B01E03C
:1023D00002D02EEC13F0E552E552E7CFD9FF120000
:1023E000D9CFE6FFE1CFD9FF000181510AE1FD0E0F
:1023F000DBCFE6FFFE0EDBCFE6FF51EC0DF0E55242
:10240000E552E552E7CFD9FF1200D9CFE6FFE1CF81
:10241000D9FF030EE126020E8ACFDBFF780E146E81
:102420000001D951D880145404E30001D96B020E85
:10243000DB6ADE6ADD6ADECF14F0DDCF15F0D890FE
:10244000155004E6030E145C000E15582FE2DECF83
:10245000E9FFDDCFEAFFBA0EE926000EEA22EFCF50
:1024600014F00001D951D88014541BE3020E086EF9
:10247000096ADECF0DF0DDCF0EF004EC14F006504B
:10248000156E010E155204E0E846FE0B1506FCE140
:10249000146E020EDBCFE7FF1450E712020EE7CFF7
:1024A000DBFFDF2A010E01E3DB2AC5D7020EDB507A
:1024B0008A6E0001D92B030EE15C02E2E16AE5526B
:1024C000E16EE552E7CFD9FF12008250040B02E023
:0A24D000000E01D0010E00D0120032
:0624DA006DA610D802D02F
:1024E0006DB614D80001D20509E16DBA07D0686A4B
:1024F000696A698069880001020ED26F12006D6AF4
:10250000696A6D860001010ED26F12006D6A696AF8
:102510000001D26B1200FADF12000001D25101E17A
:102520003AD06850040B04E06950040B01E03CD839
:102530006DB231D06850010B04E06950010B01E02D
:1025400056D86850100B04E06950100B01E024D8F5
:102550006850400B04E06950400B01E03DD86850E2
:10256000200B04E06950200B01E038D86850020BC2
:1025700004E06950020B01E038D8030E0001D25D7F
:1025800001E209D06850080B06E06950080B03E02F
:102590001CEC0EF068961200698468986D82A19A0E
:1025A000A08A0300A09A12006D92699468941200A8
:1025B0000001D3A110D0F8DF6D840001080ED66FA2
:1025C000070ED76F0001D607000ED75B0001D6516A
:1025D000D711F8E16D941200689C120070A003D02E
:1025E000A9EC0FF07090689A1200689212006A6A63
:1025F000686A9F0E6B6E7B0E696E6E6A0F0EE66EDA
:10260000710EE66E0F0EE66E14D8E552E552E552F5
:10261000160E706E68A602D06896FCD76D98A9EC6D
:102620000FF00001D3910001D46B0001030ED26FB3
:102630001200D9CFE6FFE1CFD9FFFD0EDBCFE9FFD6
:10264000FE0EDBCFEAFFFC0EDB5004E0EE6AFC0E70
:0C265000DB06F9D7E552E7CFD9FF1200F6
:04265C00D9CFE6FFED
:10266000E1CFD9FF020EE1260001CB51CC1101E0F0
:1026700094D00001CD5147E1010EE66ED9CFE6FFBF
:10268000DACFE6FFC9EC0CF0E552E552E55200095D
:1026900001E183D0040E0001CE5D05E1DFCFCDF076
:1026A0000001CE6B7AD0FF0EDF5C03E10001CE2B80
:1026B00029D00001815124E1DFCFE6FFE66A000165
:1026C000CE51E66EE66AB30E146E2C0E156E166AC7
:1026D00014C0E6FF15C0E6FF16C0E6FF600EE66E0A
:1026E000000EE66EE1EC14F0176E090EE15E175075
:1026F000600EE66E000EE66E12EC0DF0E552E5524D
:102700000001CE6B4AD0CDC0E6FFCFC0E6FFD0C0FF
:10271000E6FFC9EC0CF0E552E552E552E76E010E1A
:10272000E7CFDBFF010EDB500001CD5F010EDB5078
:10273000146E156A14500001CF2715500001D023E4
:102740000001CD51000801E228D00001D1510EE175
:102750000001000ECB6F010ECC6F0001010ED16F96
:102760000001000ECF6F020ED06F0CD00001000EE2
:10277000CB6F020ECC6F0001D16B0001000ECF6F4A
:10278000010ED06F0001815108E1AE0EE66E2C0EF5
:10279000E66E51EC0DF0E552E552020EE15C02E20C
:0E27A000E16AE552E16EE552E7CFD9FF120083
:0227AE00006ABF
:1027B0000EAEE2EF13F00C6C0D1E0E1EE86A0D2239
:1027C0000E22001E09AEECEF13F0076C081E091E66
:1027D000E86A08220922001E74EC16F009BEFFEF19
:1027E00013F000AE000C076C081E091EE86A0822F0
:1027F0000922036C041E051E04220522000C00BEE3
:10280000F3EF13F00188FF0C09C013F008C012F0B9
:1028100008500D02F4CF07F0F3CF06F009500E0276
:10282000F4CF09F0F3CF08F00D02F3500726F4506F
:102830000822E86A092212500E02F3500726F450CB
:102840000822E86A09220EAE2AEF14F01250085E40
:102850001350095A13AE000C0D50085E0E50095A61
:10286000000C09C013F008C012F007C011F00750A7
:102870000C02F4CF05F0F3CF04F008500D02F4CFB2
:1028800007F0F3CF06F00C02F3500526F4500622B1
:10289000E86A072211500D02F3500526F450062273
:1028A000E86A072209500C02F3500626F45007226A
:1028B00009500D02086AE86A0822F3500726F4500E
:1028C000082211500E02F3500626F4500722096A1E
:1028D000E86A0822092212500E02F3500726F4502B
:1028E0000822E86A092213500E02F3500826F45019
:0428F0000922000CAD
:0C28F4001201000202000008D8040A00D3
:1029000000000102000109024300020100803209B7
:102910000400000102020100052400100104240249
:1029200002052406000105240100010705820308B1
:10293000000209040100020A00000007050302402A
:102940000000070583024000000403090434034D1E
:10295000006900630072006F006300680069007026
:1029600000200054006500630068006E006F006C7A
:10297000006F0067007900200049006E0063002EA0
:102980000034034300440043002000520053002D54
:1029900000320033003200200045006D0075006CED
:1029A000006100740069006F006E00200044006543
:1029B000006D006F000629062949294D29812960EB
:0129C00018FE
:0E29C200D9CFE6FFDACFE6FFE1CFD9FFE2CFB3
:1029D000DAFFE652E652E652E652D950F90F146E8B
:1029E000FF0EDA20156E020E14C0DBFF030E15C0B9
:1029F000DBFF020EDBCFE6FF030EDBCFE6FFF90EB7
:102A0000DBCFE6FFFA0EDBCFE6FFFB0EDBCFE6FF08
:102A1000D950FC0FE66EFF0EDA20E66E3EEC04F0B5
:102A2000146E070EE15C02E2E16AE552E16E1450B9
:102A3000F3CFDEFFF4CFDDFFFC0EDBCFE9FFFD0EB1
:102A4000DBCFEAFFEF6ADECF14F0DDCF15F014C064
:102A5000F3FF15C0F4FF040EE15C02E2E16AE55207
:0E2A6000E16EE552E5CFDAFFE7CFD9FF1200B5
:022A6E002A0E2E
:102A7000F66E080EF76E000EF86E00010900F550B4
:102A8000B56F0900F550B66F03E1B56701D03DD0D1
:102A90000900F550B06F0900F550B16F0900F5500D
:102AA000B26F09000900F550E96E0900F550EA6EB1
:102AB000090009000900F550B36F0900F550B46F23
:102AC00009000900F6CFB7F0F7CFB8F0F8CFB9F0AA
:102AD000B0C0F6FFB1C0F7FFB2C0F8FF0001B353BA
:102AE00002E1B45307E00900F550EE6EB307F8E2D7
:102AF000B407F9D7B7C0F6FFB8C0F7FFB9C0F8FF01
:0C2B00000001B507000EB65BBFD7120045
:042B0C00D9CFE6FF38
:102B1000DACFE6FFE1CFD9FFE2CFDAFFFB0EDBCF62
:102B200014F0FC0EDBCF15F00001800E15141AE135
:102B3000FB0EDBCFE9FFFC0EDBCFEAFFEECFF3FFAE
:102B4000EDCFF4FFEE2A000EEF22F3CFE9FFF4CF32
:102B5000EAFFFD0EDBCFEFFFEF50156AF36E15C0F5
:102B6000F4FF10D0FB0EDB50FE0806E1FD0EDBCFBC
:102B7000E6FFBFEC16F005D0FD0EDBCFE6FFE6EC7E
:102B800016F0E552E552E5CFDAFFE7CFD9FF1200A4
:102B900006500B02F3CF02F0F4CF03F00C02F35017
:102BA0000326000EF420046E06500D02F350042696
:102BB000000EF420056E06500E02F3500526075055
:102BC0000B02F3500326F4500422000E0522075096
:102BD0000C02F3500426F450052207500D02F35066
:102BE000052608500B02F3500426F4500522085025
:102BF0000C02F350052609500B02F3500526120073
:102C0000FE0EE3CFE9FFFF0EE3CFEAFFF36AF46ABB
:102C1000EE5203E0F34AF42AFBD71200FF0EE3CF93
:102C2000F8FFE552FF0EE3CFF7FFE552FF0EE3CFCB
:102C3000F6FFE552E66AE66AE66A0900F55209E03F
:102C4000FD0EE32A05E1FE0EE32A02E1FF0EE32A70
:102C5000F4D7FD0EE3CF07F0FE0EE3CF08F0FF0E32
:062C6000E3CF09F01200B1
:0A2C6600056A046A036A026A200E80
:102C7000E76ED89006360736083609360236033630
:102C8000043605360B50025C0C5003580D500458A6
:102C90000E50055809E30B50025E0C50035A0D50BC
:0E2CA000045A0E50055A062AE72EE4D71200F9
:022CAE004F4B8A
:102CB0000D0A003F2025642025640D0A0068616C20
:102CC0007465640D0A00696C6C6567616C20696EDF
:102CD000737472756374696F6E0D0A00537769744B
:082CE0006368696E670D0A00CC
:082CE800056A046A036A180E74
:102CF000E76ED890073608360936033604360536AF
:102D00000C50035C0D5004580E50055807E30C504E
:102D1000035E0D50045A0E50055A072AE72EEAD7D3
:022D200012009F
:0E2D220005D811D8DBEC11F0FCD712000F0E13
:102D3000C112140E6F6E0001D26B0001D36B000143
:102D4000D46BA9EC11F012006DEC12F06FBE02D042
:0A2D50008DEC12F092EC0DF0120071
:062D5A00F36AF46AFF0EAB
:102D6000E124E96EFF0EE220EA6EED6607D02F0E39
:0E2D7000EF6404D03A0EEF6001D0F32A120097
:022D7E00FF0E46
:102D8000E350ACBA04D0AF6AAB8EAC8A949CACA2D0
:0A2D9000FED7AD6EF36EF46A120078
:062D9A0013EE00F023EE31
:102DA00000F0F86A019C37EC15F091EC16F0FDD7B5
:022DB00012000F
:0E2DB20030313233343536373839616263647C
:032DC00065660045
:082DC3005C15AA175417021752
:022DCC001200F3
:022DCE00000003
:072DD00000000000000100FB
:092DD700000F000500F000050FDB
:0C2DE000000005100C0060309B0000009B
:00000001FF
